{
  "_format": "hh-sol-artifact-1",
  "contractName": "KoMintableERC721",
  "sourceName": "contracts/KoMintableERC721.sol",
  "abi": [
    {
      "inputs": [
        {
          "internalType": "string",
          "name": "name_",
          "type": "string"
        },
        {
          "internalType": "string",
          "name": "symbol_",
          "type": "string"
        }
      ],
      "stateMutability": "nonpayable",
      "type": "constructor"
    },
    {
      "anonymous": false,
      "inputs": [
        {
          "indexed": true,
          "internalType": "address",
          "name": "owner",
          "type": "address"
        },
        {
          "indexed": true,
          "internalType": "address",
          "name": "approved",
          "type": "address"
        },
        {
          "indexed": true,
          "internalType": "uint256",
          "name": "tokenId",
          "type": "uint256"
        }
      ],
      "name": "Approval",
      "type": "event"
    },
    {
      "anonymous": false,
      "inputs": [
        {
          "indexed": true,
          "internalType": "address",
          "name": "owner",
          "type": "address"
        },
        {
          "indexed": true,
          "internalType": "address",
          "name": "operator",
          "type": "address"
        },
        {
          "indexed": false,
          "internalType": "bool",
          "name": "approved",
          "type": "bool"
        }
      ],
      "name": "ApprovalForAll",
      "type": "event"
    },
    {
      "anonymous": false,
      "inputs": [
        {
          "indexed": false,
          "internalType": "address",
          "name": "userAddress",
          "type": "address"
        },
        {
          "indexed": false,
          "internalType": "address payable",
          "name": "relayerAddress",
          "type": "address"
        },
        {
          "indexed": false,
          "internalType": "bytes",
          "name": "functionSignature",
          "type": "bytes"
        }
      ],
      "name": "MetaTransactionExecuted",
      "type": "event"
    },
    {
      "anonymous": false,
      "inputs": [
        {
          "indexed": true,
          "internalType": "bytes32",
          "name": "role",
          "type": "bytes32"
        },
        {
          "indexed": true,
          "internalType": "bytes32",
          "name": "previousAdminRole",
          "type": "bytes32"
        },
        {
          "indexed": true,
          "internalType": "bytes32",
          "name": "newAdminRole",
          "type": "bytes32"
        }
      ],
      "name": "RoleAdminChanged",
      "type": "event"
    },
    {
      "anonymous": false,
      "inputs": [
        {
          "indexed": true,
          "internalType": "bytes32",
          "name": "role",
          "type": "bytes32"
        },
        {
          "indexed": true,
          "internalType": "address",
          "name": "account",
          "type": "address"
        },
        {
          "indexed": true,
          "internalType": "address",
          "name": "sender",
          "type": "address"
        }
      ],
      "name": "RoleGranted",
      "type": "event"
    },
    {
      "anonymous": false,
      "inputs": [
        {
          "indexed": true,
          "internalType": "bytes32",
          "name": "role",
          "type": "bytes32"
        },
        {
          "indexed": true,
          "internalType": "address",
          "name": "account",
          "type": "address"
        },
        {
          "indexed": true,
          "internalType": "address",
          "name": "sender",
          "type": "address"
        }
      ],
      "name": "RoleRevoked",
      "type": "event"
    },
    {
      "anonymous": false,
      "inputs": [
        {
          "indexed": true,
          "internalType": "address",
          "name": "from",
          "type": "address"
        },
        {
          "indexed": true,
          "internalType": "address",
          "name": "to",
          "type": "address"
        },
        {
          "indexed": true,
          "internalType": "uint256",
          "name": "tokenId",
          "type": "uint256"
        }
      ],
      "name": "Transfer",
      "type": "event"
    },
    {
      "inputs": [],
      "name": "DEFAULT_ADMIN_ROLE",
      "outputs": [
        {
          "internalType": "bytes32",
          "name": "",
          "type": "bytes32"
        }
      ],
      "stateMutability": "view",
      "type": "function"
    },
    {
      "inputs": [],
      "name": "ERC712_VERSION",
      "outputs": [
        {
          "internalType": "string",
          "name": "",
          "type": "string"
        }
      ],
      "stateMutability": "view",
      "type": "function"
    },
    {
      "inputs": [],
      "name": "PREDICATE_ROLE",
      "outputs": [
        {
          "internalType": "bytes32",
          "name": "",
          "type": "bytes32"
        }
      ],
      "stateMutability": "view",
      "type": "function"
    },
    {
      "inputs": [
        {
          "internalType": "address",
          "name": "to",
          "type": "address"
        },
        {
          "internalType": "uint256",
          "name": "tokenId",
          "type": "uint256"
        }
      ],
      "name": "approve",
      "outputs": [],
      "stateMutability": "nonpayable",
      "type": "function"
    },
    {
      "inputs": [
        {
          "internalType": "address",
          "name": "owner",
          "type": "address"
        }
      ],
      "name": "balanceOf",
      "outputs": [
        {
          "internalType": "uint256",
          "name": "",
          "type": "uint256"
        }
      ],
      "stateMutability": "view",
      "type": "function"
    },
    {
      "inputs": [],
      "name": "baseURI",
      "outputs": [
        {
          "internalType": "string",
          "name": "",
          "type": "string"
        }
      ],
      "stateMutability": "view",
      "type": "function"
    },
    {
      "inputs": [
        {
          "internalType": "address",
          "name": "userAddress",
          "type": "address"
        },
        {
          "internalType": "bytes",
          "name": "functionSignature",
          "type": "bytes"
        },
        {
          "internalType": "bytes32",
          "name": "sigR",
          "type": "bytes32"
        },
        {
          "internalType": "bytes32",
          "name": "sigS",
          "type": "bytes32"
        },
        {
          "internalType": "uint8",
          "name": "sigV",
          "type": "uint8"
        }
      ],
      "name": "executeMetaTransaction",
      "outputs": [
        {
          "internalType": "bytes",
          "name": "",
          "type": "bytes"
        }
      ],
      "stateMutability": "payable",
      "type": "function"
    },
    {
      "inputs": [
        {
          "internalType": "uint256",
          "name": "tokenId",
          "type": "uint256"
        }
      ],
      "name": "exists",
      "outputs": [
        {
          "internalType": "bool",
          "name": "",
          "type": "bool"
        }
      ],
      "stateMutability": "view",
      "type": "function"
    },
    {
      "inputs": [
        {
          "internalType": "uint256",
          "name": "tokenId",
          "type": "uint256"
        }
      ],
      "name": "getApproved",
      "outputs": [
        {
          "internalType": "address",
          "name": "",
          "type": "address"
        }
      ],
      "stateMutability": "view",
      "type": "function"
    },
    {
      "inputs": [],
      "name": "getChainId",
      "outputs": [
        {
          "internalType": "uint256",
          "name": "",
          "type": "uint256"
        }
      ],
      "stateMutability": "view",
      "type": "function"
    },
    {
      "inputs": [],
      "name": "getDomainSeperator",
      "outputs": [
        {
          "internalType": "bytes32",
          "name": "",
          "type": "bytes32"
        }
      ],
      "stateMutability": "view",
      "type": "function"
    },
    {
      "inputs": [
        {
          "internalType": "address",
          "name": "user",
          "type": "address"
        }
      ],
      "name": "getNonce",
      "outputs": [
        {
          "internalType": "uint256",
          "name": "nonce",
          "type": "uint256"
        }
      ],
      "stateMutability": "view",
      "type": "function"
    },
    {
      "inputs": [
        {
          "internalType": "bytes32",
          "name": "role",
          "type": "bytes32"
        }
      ],
      "name": "getRoleAdmin",
      "outputs": [
        {
          "internalType": "bytes32",
          "name": "",
          "type": "bytes32"
        }
      ],
      "stateMutability": "view",
      "type": "function"
    },
    {
      "inputs": [
        {
          "internalType": "bytes32",
          "name": "role",
          "type": "bytes32"
        },
        {
          "internalType": "uint256",
          "name": "index",
          "type": "uint256"
        }
      ],
      "name": "getRoleMember",
      "outputs": [
        {
          "internalType": "address",
          "name": "",
          "type": "address"
        }
      ],
      "stateMutability": "view",
      "type": "function"
    },
    {
      "inputs": [
        {
          "internalType": "bytes32",
          "name": "role",
          "type": "bytes32"
        }
      ],
      "name": "getRoleMemberCount",
      "outputs": [
        {
          "internalType": "uint256",
          "name": "",
          "type": "uint256"
        }
      ],
      "stateMutability": "view",
      "type": "function"
    },
    {
      "inputs": [
        {
          "internalType": "bytes32",
          "name": "role",
          "type": "bytes32"
        },
        {
          "internalType": "address",
          "name": "account",
          "type": "address"
        }
      ],
      "name": "grantRole",
      "outputs": [],
      "stateMutability": "nonpayable",
      "type": "function"
    },
    {
      "inputs": [
        {
          "internalType": "bytes32",
          "name": "role",
          "type": "bytes32"
        },
        {
          "internalType": "address",
          "name": "account",
          "type": "address"
        }
      ],
      "name": "hasRole",
      "outputs": [
        {
          "internalType": "bool",
          "name": "",
          "type": "bool"
        }
      ],
      "stateMutability": "view",
      "type": "function"
    },
    {
      "inputs": [
        {
          "internalType": "address",
          "name": "owner",
          "type": "address"
        },
        {
          "internalType": "address",
          "name": "operator",
          "type": "address"
        }
      ],
      "name": "isApprovedForAll",
      "outputs": [
        {
          "internalType": "bool",
          "name": "",
          "type": "bool"
        }
      ],
      "stateMutability": "view",
      "type": "function"
    },
    {
      "inputs": [
        {
          "internalType": "address",
          "name": "user",
          "type": "address"
        },
        {
          "internalType": "uint256",
          "name": "tokenId",
          "type": "uint256"
        }
      ],
      "name": "mint",
      "outputs": [],
      "stateMutability": "nonpayable",
      "type": "function"
    },
    {
      "inputs": [
        {
          "internalType": "address",
          "name": "user",
          "type": "address"
        },
        {
          "internalType": "uint256",
          "name": "tokenId",
          "type": "uint256"
        },
        {
          "internalType": "bytes",
          "name": "metaData",
          "type": "bytes"
        }
      ],
      "name": "mint",
      "outputs": [],
      "stateMutability": "nonpayable",
      "type": "function"
    },
    {
      "inputs": [
        {
          "internalType": "address",
          "name": "recipient",
          "type": "address"
        },
        {
          "internalType": "string",
          "name": "uri",
          "type": "string"
        }
      ],
      "name": "mint",
      "outputs": [
        {
          "internalType": "uint256",
          "name": "",
          "type": "uint256"
        }
      ],
      "stateMutability": "nonpayable",
      "type": "function"
    },
    {
      "inputs": [],
      "name": "name",
      "outputs": [
        {
          "internalType": "string",
          "name": "",
          "type": "string"
        }
      ],
      "stateMutability": "view",
      "type": "function"
    },
    {
      "inputs": [
        {
          "internalType": "uint256",
          "name": "tokenId",
          "type": "uint256"
        }
      ],
      "name": "ownerOf",
      "outputs": [
        {
          "internalType": "address",
          "name": "",
          "type": "address"
        }
      ],
      "stateMutability": "view",
      "type": "function"
    },
    {
      "inputs": [
        {
          "internalType": "bytes32",
          "name": "role",
          "type": "bytes32"
        },
        {
          "internalType": "address",
          "name": "account",
          "type": "address"
        }
      ],
      "name": "renounceRole",
      "outputs": [],
      "stateMutability": "nonpayable",
      "type": "function"
    },
    {
      "inputs": [
        {
          "internalType": "bytes32",
          "name": "role",
          "type": "bytes32"
        },
        {
          "internalType": "address",
          "name": "account",
          "type": "address"
        }
      ],
      "name": "revokeRole",
      "outputs": [],
      "stateMutability": "nonpayable",
      "type": "function"
    },
    {
      "inputs": [
        {
          "internalType": "address",
          "name": "from",
          "type": "address"
        },
        {
          "internalType": "address",
          "name": "to",
          "type": "address"
        },
        {
          "internalType": "uint256",
          "name": "tokenId",
          "type": "uint256"
        }
      ],
      "name": "safeTransferFrom",
      "outputs": [],
      "stateMutability": "nonpayable",
      "type": "function"
    },
    {
      "inputs": [
        {
          "internalType": "address",
          "name": "from",
          "type": "address"
        },
        {
          "internalType": "address",
          "name": "to",
          "type": "address"
        },
        {
          "internalType": "uint256",
          "name": "tokenId",
          "type": "uint256"
        },
        {
          "internalType": "bytes",
          "name": "_data",
          "type": "bytes"
        }
      ],
      "name": "safeTransferFrom",
      "outputs": [],
      "stateMutability": "nonpayable",
      "type": "function"
    },
    {
      "inputs": [
        {
          "internalType": "address",
          "name": "operator",
          "type": "address"
        },
        {
          "internalType": "bool",
          "name": "approved",
          "type": "bool"
        }
      ],
      "name": "setApprovalForAll",
      "outputs": [],
      "stateMutability": "nonpayable",
      "type": "function"
    },
    {
      "inputs": [
        {
          "internalType": "bytes4",
          "name": "interfaceId",
          "type": "bytes4"
        }
      ],
      "name": "supportsInterface",
      "outputs": [
        {
          "internalType": "bool",
          "name": "",
          "type": "bool"
        }
      ],
      "stateMutability": "view",
      "type": "function"
    },
    {
      "inputs": [],
      "name": "symbol",
      "outputs": [
        {
          "internalType": "string",
          "name": "",
          "type": "string"
        }
      ],
      "stateMutability": "view",
      "type": "function"
    },
    {
      "inputs": [
        {
          "internalType": "uint256",
          "name": "index",
          "type": "uint256"
        }
      ],
      "name": "tokenByIndex",
      "outputs": [
        {
          "internalType": "uint256",
          "name": "",
          "type": "uint256"
        }
      ],
      "stateMutability": "view",
      "type": "function"
    },
    {
      "inputs": [
        {
          "internalType": "address",
          "name": "owner",
          "type": "address"
        },
        {
          "internalType": "uint256",
          "name": "index",
          "type": "uint256"
        }
      ],
      "name": "tokenOfOwnerByIndex",
      "outputs": [
        {
          "internalType": "uint256",
          "name": "",
          "type": "uint256"
        }
      ],
      "stateMutability": "view",
      "type": "function"
    },
    {
      "inputs": [
        {
          "internalType": "uint256",
          "name": "tokenId",
          "type": "uint256"
        }
      ],
      "name": "tokenURI",
      "outputs": [
        {
          "internalType": "string",
          "name": "",
          "type": "string"
        }
      ],
      "stateMutability": "view",
      "type": "function"
    },
    {
      "inputs": [],
      "name": "totalSupply",
      "outputs": [
        {
          "internalType": "uint256",
          "name": "",
          "type": "uint256"
        }
      ],
      "stateMutability": "view",
      "type": "function"
    },
    {
      "inputs": [
        {
          "internalType": "address",
          "name": "from",
          "type": "address"
        },
        {
          "internalType": "address",
          "name": "to",
          "type": "address"
        },
        {
          "internalType": "uint256",
          "name": "tokenId",
          "type": "uint256"
        }
      ],
      "name": "transferFrom",
      "outputs": [],
      "stateMutability": "nonpayable",
      "type": "function"
    }
  ],
  "bytecode": "0x60806040526000600c60006101000a81548160ff0219169083151502179055503480156200002c57600080fd5b5060405162005b0e38038062005b0e83398181016040528101906200005291906200077f565b81816200006c6301ffc9a760e01b620001ac60201b60201c565b8160069080519060200190620000849291906200065d565b5080600790805190602001906200009d9291906200065d565b50620000b66380ac58cd60e01b620001ac60201b60201c565b620000ce635b5e139f60e01b620001ac60201b60201c565b620000e663780e9d6360e01b620001ac60201b60201c565b50506200012e6040518060400160405280601081526020017f4b6f4d696e7461626c65455243373231000000000000000000000000000000008152506200028460201b60201c565b620001526000801b62000146620002c160201b60201c565b620002dd60201b60201c565b620001937f12ff340d0cd9c652c747ca35727e68c547d0f0bfa7758d2e77f75acef481b4f262000187620002c160201b60201c565b620002dd60201b60201c565b620001a482620002f360201b60201c565b505062000bd7565b63ffffffff60e01b817bffffffffffffffffffffffffffffffffffffffffffffffffffffffff1916141562000218576040517f08c379a00000000000000000000000000000000000000000000000000000000081526004016200020f9062000943565b60405180910390fd5b6001600080837bffffffffffffffffffffffffffffffffffffffffffffffffffffffff19167bffffffffffffffffffffffffffffffffffffffffffffffffffffffff1916815260200190815260200160002060006101000a81548160ff02191690831515021790555050565b80604051602001620002979190620008c0565b604051602081830303815290604052600b9080519060200190620002bd9291906200065d565b5050565b6000620002d86200037560201b620019821760201c565b905090565b620002ef82826200042860201b60201c565b5050565b600c60009054906101000a900460ff161562000346576040517f08c379a00000000000000000000000000000000000000000000000000000000081526004016200033d9062000965565b60405180910390fd5b6200035781620004cc60201b60201c565b6001600c60006101000a81548160ff02191690831515021790555050565b60003073ffffffffffffffffffffffffffffffffffffffff163373ffffffffffffffffffffffffffffffffffffffff1614156200042157600080368080601f016020809104026020016040519081016040528093929190818152602001838380828437600081840152601f19601f820116905080830192505050505050509050600080369050905073ffffffffffffffffffffffffffffffffffffffff81830151169250505062000425565b3390505b90565b6200045781600a60008581526020019081526020016000206000016200057b60201b62001a331790919060201c565b15620004c8576200046d620002c160201b60201c565b73ffffffffffffffffffffffffffffffffffffffff168173ffffffffffffffffffffffffffffffffffffffff16837f2f8788117e7eff1d82e926ec794901d17c78024a50270940304540a733656f0d60405160405180910390a45b5050565b6040518060800160405280604f815260200162005abf604f91398051906020012081805190602001206040518060400160405280600181526020017f3100000000000000000000000000000000000000000000000000000000000000815250805190602001203062000543620005b360201b60201c565b60001b6040516020016200055c959493929190620008e6565b60405160208183030381529060405280519060200120600d8190555050565b6000620005ab836000018373ffffffffffffffffffffffffffffffffffffffff1660001b620005c060201b60201c565b905092915050565b6000804690508091505090565b6000620005d483836200063a60201b60201c565b6200062f57826000018290806001815401808255809150506001900390600052602060002001600090919091909150558260000180549050836001016000848152602001908152602001600020819055506001905062000634565b600090505b92915050565b600080836001016000848152602001908152602001600020541415905092915050565b8280546200066b9062000a81565b90600052602060002090601f0160209004810192826200068f5760008555620006db565b82601f10620006aa57805160ff1916838001178555620006db565b82800160010185558215620006db579182015b82811115620006da578251825591602001919060010190620006bd565b5b509050620006ea9190620006ee565b5090565b5b8082111562000709576000816000905550600101620006ef565b5090565b6000620007246200071e84620009b0565b62000987565b9050828152602081018484840111156200073d57600080fd5b6200074a84828562000a4b565b509392505050565b600082601f8301126200076457600080fd5b8151620007768482602086016200070d565b91505092915050565b600080604083850312156200079357600080fd5b600083015167ffffffffffffffff811115620007ae57600080fd5b620007bc8582860162000752565b925050602083015167ffffffffffffffff811115620007da57600080fd5b620007e88582860162000752565b9150509250929050565b620007fd8162000a0d565b82525050565b6200080e8162000a21565b82525050565b60006200082182620009e6565b6200082d818562000a02565b93506200083f81856020860162000a4b565b80840191505092915050565b60006200085a601a8362000a02565b9150620008678262000b5c565b601a82019050919050565b600062000881601c83620009f1565b91506200088e8262000b85565b602082019050919050565b6000620008a8600e83620009f1565b9150620008b58262000bae565b602082019050919050565b6000620008ce828462000814565b9150620008db826200084b565b915081905092915050565b600060a082019050620008fd600083018862000803565b6200090c602083018762000803565b6200091b604083018662000803565b6200092a6060830185620007f2565b62000939608083018462000803565b9695505050505050565b600060208201905081810360008301526200095e8162000872565b9050919050565b60006020820190508181036000830152620009808162000899565b9050919050565b600062000993620009a6565b9050620009a1828262000ab7565b919050565b6000604051905090565b600067ffffffffffffffff821115620009ce57620009cd62000b1c565b5b620009d98262000b4b565b9050602081019050919050565b600081519050919050565b600082825260208201905092915050565b600081905092915050565b600062000a1a8262000a2b565b9050919050565b6000819050919050565b600073ffffffffffffffffffffffffffffffffffffffff82169050919050565b60005b8381101562000a6b57808201518184015260208101905062000a4e565b8381111562000a7b576000848401525b50505050565b6000600282049050600182168062000a9a57607f821691505b6020821081141562000ab15762000ab062000aed565b5b50919050565b62000ac28262000b4b565b810181811067ffffffffffffffff8211171562000ae45762000ae362000b1c565b5b80604052505050565b7f4e487b7100000000000000000000000000000000000000000000000000000000600052602260045260246000fd5b7f4e487b7100000000000000000000000000000000000000000000000000000000600052604160045260246000fd5b6000601f19601f8301169050919050565b7f3a20494e53554646494349454e545f5045524d495353494f4e53000000000000600082015250565b7f4552433136353a20696e76616c696420696e7465726661636520696400000000600082015250565b7f616c726561647920696e69746564000000000000000000000000000000000000600082015250565b614ed88062000be76000396000f3fe6080604052600436106102045760003560e01c80634f558e7911610118578063a217fddf116100a0578063ca15c8731161006f578063ca15c873146107de578063d0def5211461081b578063d547741f14610858578063e72db5fd14610881578063e985e9c5146108ac57610204565b8063a217fddf14610724578063a22cb4651461074f578063b88d4fde14610778578063c87b56dd146107a157610204565b806370a08231116100e757806370a08231146106195780639010d07c1461065657806391d148541461069357806394d008ef146106d057806395d89b41146106f957610204565b80634f558e79146105375780634f6ccce7146105745780636352211e146105b15780636c0360eb146105ee57610204565b806323b872dd1161019b5780632f745c591161016a5780632f745c59146104545780633408e4701461049157806336568abe146104bc57806340c10f19146104e557806342842e0e1461050e57610204565b806323b872dd14610388578063248a9ca3146103b15780632d0335ab146103ee5780632f2ff15d1461042b57610204565b80630c53c51c116101d75780630c53c51c146102d75780630f7e59701461030757806318160ddd1461033257806320379ee51461035d57610204565b806301ffc9a71461020957806306fdde0314610246578063081812fc14610271578063095ea7b3146102ae575b600080fd5b34801561021557600080fd5b50610230600480360381019061022b9190613638565b6108e9565b60405161023d9190613df9565b60405180910390f35b34801561025257600080fd5b5061025b610950565b6040516102689190613edb565b60405180910390f35b34801561027d57600080fd5b50610298600480360381019061029391906136cb565b6109e2565b6040516102a59190613d54565b60405180910390f35b3480156102ba57600080fd5b506102d560048036038101906102d091906134ef565b610a67565b005b6102f160048036038101906102ec919061340c565b610b7f565b6040516102fe9190613eb9565b60405180910390f35b34801561031357600080fd5b5061031c610df1565b6040516103299190613edb565b60405180910390f35b34801561033e57600080fd5b50610347610e2a565b604051610354919061421f565b60405180910390f35b34801561036957600080fd5b50610372610e3b565b60405161037f9190613e14565b60405180910390f35b34801561039457600080fd5b506103af60048036038101906103aa9190613306565b610e45565b005b3480156103bd57600080fd5b506103d860048036038101906103d39190613597565b610ea5565b6040516103e59190613e14565b60405180910390f35b3480156103fa57600080fd5b50610415600480360381019061041091906132a1565b610ec5565b604051610422919061421f565b60405180910390f35b34801561043757600080fd5b50610452600480360381019061044d91906135c0565b610f0e565b005b34801561046057600080fd5b5061047b600480360381019061047691906134ef565b610f82565b604051610488919061421f565b60405180910390f35b34801561049d57600080fd5b506104a6610fdd565b6040516104b3919061421f565b60405180910390f35b3480156104c857600080fd5b506104e360048036038101906104de91906135c0565b610fea565b005b3480156104f157600080fd5b5061050c600480360381019061050791906134ef565b61106d565b005b34801561051a57600080fd5b5061053560048036038101906105309190613306565b6110f2565b005b34801561054357600080fd5b5061055e600480360381019061055991906136cb565b611112565b60405161056b9190613df9565b60405180910390f35b34801561058057600080fd5b5061059b600480360381019061059691906136cb565b611124565b6040516105a8919061421f565b60405180910390f35b3480156105bd57600080fd5b506105d860048036038101906105d391906136cb565b611147565b6040516105e59190613d54565b60405180910390f35b3480156105fa57600080fd5b5061060361117e565b6040516106109190613edb565b60405180910390f35b34801561062557600080fd5b50610640600480360381019061063b91906132a1565b611210565b60405161064d919061421f565b60405180910390f35b34801561066257600080fd5b5061067d600480360381019061067891906135fc565b6112cf565b60405161068a9190613d54565b60405180910390f35b34801561069f57600080fd5b506106ba60048036038101906106b591906135c0565b611301565b6040516106c79190613df9565b60405180910390f35b3480156106dc57600080fd5b506106f760048036038101906106f2919061352b565b611333565b005b34801561070557600080fd5b5061070e611408565b60405161071b9190613edb565b60405180910390f35b34801561073057600080fd5b5061073961149a565b6040516107469190613e14565b60405180910390f35b34801561075b57600080fd5b50610776600480360381019061077191906133d0565b6114a1565b005b34801561078457600080fd5b5061079f600480360381019061079a9190613355565b611622565b005b3480156107ad57600080fd5b506107c860048036038101906107c391906136cb565b611684565b6040516107d59190613edb565b60405180910390f35b3480156107ea57600080fd5b5061080560048036038101906108009190613597565b6117f7565b604051610812919061421f565b60405180910390f35b34801561082757600080fd5b50610842600480360381019061083d919061349b565b61181e565b60405161084f919061421f565b60405180910390f35b34801561086457600080fd5b5061087f600480360381019061087a91906135c0565b611856565b005b34801561088d57600080fd5b506108966118ca565b6040516108a39190613e14565b60405180910390f35b3480156108b857600080fd5b506108d360048036038101906108ce91906132ca565b6118ee565b6040516108e09190613df9565b60405180910390f35b6000806000837bffffffffffffffffffffffffffffffffffffffffffffffffffffffff19167bffffffffffffffffffffffffffffffffffffffffffffffffffffffff1916815260200190815260200160002060009054906101000a900460ff169050919050565b60606006805461095f906144e8565b80601f016020809104026020016040519081016040528092919081815260200182805461098b906144e8565b80156109d85780601f106109ad576101008083540402835291602001916109d8565b820191906000526020600020905b8154815290600101906020018083116109bb57829003601f168201915b5050505050905090565b60006109ed82611a63565b610a2c576040517f08c379a0000000000000000000000000000000000000000000000000000000008152600401610a23906140ff565b60405180910390fd5b6004600083815260200190815260200160002060009054906101000a900473ffffffffffffffffffffffffffffffffffffffff169050919050565b6000610a7282611147565b90508073ffffffffffffffffffffffffffffffffffffffff168373ffffffffffffffffffffffffffffffffffffffff161415610ae3576040517f08c379a0000000000000000000000000000000000000000000000000000000008152600401610ada9061419f565b60405180910390fd5b8073ffffffffffffffffffffffffffffffffffffffff16610b02611a80565b73ffffffffffffffffffffffffffffffffffffffff161480610b315750610b3081610b2b611a80565b6118ee565b5b610b70576040517f08c379a0000000000000000000000000000000000000000000000000000000008152600401610b679061407f565b60405180910390fd5b610b7a8383611a8f565b505050565b606060006040518060600160405280600e60008a73ffffffffffffffffffffffffffffffffffffffff1673ffffffffffffffffffffffffffffffffffffffff1681526020019081526020016000205481526020018873ffffffffffffffffffffffffffffffffffffffff168152602001878152509050610c028782878787611b48565b610c41576040517f08c379a0000000000000000000000000000000000000000000000000000000008152600401610c389061415f565b60405180910390fd5b610c946001600e60008a73ffffffffffffffffffffffffffffffffffffffff1673ffffffffffffffffffffffffffffffffffffffff16815260200190815260200160002054611c5190919063ffffffff16565b600e60008973ffffffffffffffffffffffffffffffffffffffff1673ffffffffffffffffffffffffffffffffffffffff168152602001908152602001600020819055507f5845892132946850460bff5a0083f71031bc5bf9aadcd40f1de79423eac9b10b873388604051610d0a93929190613dbb565b60405180910390a16000803073ffffffffffffffffffffffffffffffffffffffff16888a604051602001610d3f929190613cd1565b604051602081830303815290604052604051610d5b9190613cba565b6000604051808303816000865af19150503d8060008114610d98576040519150601f19603f3d011682016040523d82523d6000602084013e610d9d565b606091505b509150915081610de2576040517f08c379a0000000000000000000000000000000000000000000000000000000008152600401610dd990613f7f565b60405180910390fd5b80935050505095945050505050565b6040518060400160405280600181526020017f310000000000000000000000000000000000000000000000000000000000000081525081565b6000610e366002611caf565b905090565b6000600d54905090565b610e56610e50611a80565b82611cc4565b610e95576040517f08c379a0000000000000000000000000000000000000000000000000000000008152600401610e8c906141bf565b60405180910390fd5b610ea0838383611da2565b505050565b6000600a6000838152602001908152602001600020600201549050919050565b6000600e60008373ffffffffffffffffffffffffffffffffffffffff1673ffffffffffffffffffffffffffffffffffffffff168152602001908152602001600020549050919050565b610f35600a600084815260200190815260200160002060020154610f30611a80565b611301565b610f74576040517f08c379a0000000000000000000000000000000000000000000000000000000008152600401610f6b90613f3f565b60405180910390fd5b610f7e8282611fb9565b5050565b6000610fd582600160008673ffffffffffffffffffffffffffffffffffffffff1673ffffffffffffffffffffffffffffffffffffffff16815260200190815260200160002061204d90919063ffffffff16565b905092915050565b6000804690508091505090565b610ff2611a80565b73ffffffffffffffffffffffffffffffffffffffff168173ffffffffffffffffffffffffffffffffffffffff161461105f576040517f08c379a0000000000000000000000000000000000000000000000000000000008152600401611056906141ff565b60405180910390fd5b6110698282612067565b5050565b7f12ff340d0cd9c652c747ca35727e68c547d0f0bfa7758d2e77f75acef481b4f261109f8161109a611a80565b611301565b600b906110e2576040517f08c379a00000000000000000000000000000000000000000000000000000000081526004016110d99190613efd565b60405180910390fd5b506110ed83836120fb565b505050565b61110d83838360405180602001604052806000815250611622565b505050565b600061111d82611a63565b9050919050565b60008061113b83600261228990919063ffffffff16565b50905080915050919050565b600061117782604051806060016040528060298152602001614e7a6029913960026122b59092919063ffffffff16565b9050919050565b60606009805461118d906144e8565b80601f01602080910402602001604051908101604052809291908181526020018280546111b9906144e8565b80156112065780601f106111db57610100808354040283529160200191611206565b820191906000526020600020905b8154815290600101906020018083116111e957829003601f168201915b5050505050905090565b60008073ffffffffffffffffffffffffffffffffffffffff168273ffffffffffffffffffffffffffffffffffffffff161415611281576040517f08c379a00000000000000000000000000000000000000000000000000000000081526004016112789061409f565b60405180910390fd5b6112c8600160008473ffffffffffffffffffffffffffffffffffffffff1673ffffffffffffffffffffffffffffffffffffffff1681526020019081526020016000206122d4565b9050919050565b60006112f982600a60008681526020019081526020016000206000016122e990919063ffffffff16565b905092915050565b600061132b82600a600086815260200190815260200160002060000161230390919063ffffffff16565b905092915050565b7f12ff340d0cd9c652c747ca35727e68c547d0f0bfa7758d2e77f75acef481b4f261136581611360611a80565b611301565b600b906113a8576040517f08c379a000000000000000000000000000000000000000000000000000000000815260040161139f9190613efd565b60405180910390fd5b506113b385856120fb565b6114018484848080601f016020809104026020016040519081016040528093929190818152602001838380828437600081840152601f19601f82011690508083019250505050505050612333565b5050505050565b606060078054611417906144e8565b80601f0160208091040260200160405190810160405280929190818152602001828054611443906144e8565b80156114905780601f1061146557610100808354040283529160200191611490565b820191906000526020600020905b81548152906001019060200180831161147357829003601f168201915b5050505050905090565b6000801b81565b6114a9611a80565b73ffffffffffffffffffffffffffffffffffffffff168273ffffffffffffffffffffffffffffffffffffffff161415611517576040517f08c379a000000000000000000000000000000000000000000000000000000000815260040161150e90613fff565b60405180910390fd5b8060056000611524611a80565b73ffffffffffffffffffffffffffffffffffffffff1673ffffffffffffffffffffffffffffffffffffffff16815260200190815260200160002060008473ffffffffffffffffffffffffffffffffffffffff1673ffffffffffffffffffffffffffffffffffffffff16815260200190815260200160002060006101000a81548160ff0219169083151502179055508173ffffffffffffffffffffffffffffffffffffffff166115d1611a80565b73ffffffffffffffffffffffffffffffffffffffff167f17307eab39ab6107e8899845ad3d59bd9653f200f220920489ca2b5937696c31836040516116169190613df9565b60405180910390a35050565b61163361162d611a80565b83611cc4565b611672576040517f08c379a0000000000000000000000000000000000000000000000000000000008152600401611669906141bf565b60405180910390fd5b61167e8484848461235a565b50505050565b606061168f82611a63565b6116ce576040517f08c379a00000000000000000000000000000000000000000000000000000000081526004016116c59061417f565b60405180910390fd5b60006008600084815260200190815260200160002080546116ee906144e8565b80601f016020809104026020016040519081016040528092919081815260200182805461171a906144e8565b80156117675780601f1061173c57610100808354040283529160200191611767565b820191906000526020600020905b81548152906001019060200180831161174a57829003601f168201915b5050505050905060006009805461177d906144e8565b9050141561178e57809150506117f2565b6000815111156117c3576009816040516020016117ac929190613cf9565b6040516020818303038152906040529150506117f2565b60096117ce846123b6565b6040516020016117df929190613cf9565b6040516020818303038152906040529150505b919050565b6000611817600a6000848152602001908152602001600020600001612575565b9050919050565b600061182a600f61258a565b6000611836600f6125a0565b905061184284826120fb565b61184c81846125ae565b8091505092915050565b61187d600a600084815260200190815260200160002060020154611878611a80565b611301565b6118bc576040517f08c379a00000000000000000000000000000000000000000000000000000000081526004016118b39061403f565b60405180910390fd5b6118c68282612067565b5050565b7f12ff340d0cd9c652c747ca35727e68c547d0f0bfa7758d2e77f75acef481b4f281565b6000600560008473ffffffffffffffffffffffffffffffffffffffff1673ffffffffffffffffffffffffffffffffffffffff16815260200190815260200160002060008373ffffffffffffffffffffffffffffffffffffffff1673ffffffffffffffffffffffffffffffffffffffff16815260200190815260200160002060009054906101000a900460ff16905092915050565b60003073ffffffffffffffffffffffffffffffffffffffff163373ffffffffffffffffffffffffffffffffffffffff161415611a2c57600080368080601f016020809104026020016040519081016040528093929190818152602001838380828437600081840152601f19601f820116905080830192505050505050509050600080369050905073ffffffffffffffffffffffffffffffffffffffff818301511692505050611a30565b3390505b90565b6000611a5b836000018373ffffffffffffffffffffffffffffffffffffffff1660001b612622565b905092915050565b6000611a7982600261269290919063ffffffff16565b9050919050565b6000611a8a611982565b905090565b816004600083815260200190815260200160002060006101000a81548173ffffffffffffffffffffffffffffffffffffffff021916908373ffffffffffffffffffffffffffffffffffffffff160217905550808273ffffffffffffffffffffffffffffffffffffffff16611b0283611147565b73ffffffffffffffffffffffffffffffffffffffff167f8c5be1e5ebec7d5bd14f71427d1e84f3dd0314c0f7b2291e5b200ac8c7c3b92560405160405180910390a45050565b60008073ffffffffffffffffffffffffffffffffffffffff168673ffffffffffffffffffffffffffffffffffffffff161415611bb9576040517f08c379a0000000000000000000000000000000000000000000000000000000008152600401611bb09061405f565b60405180910390fd5b6001611bcc611bc7876126ac565b612714565b83868660405160008152602001604052604051611bec9493929190613e74565b6020604051602081039080840390855afa158015611c0e573d6000803e3d6000fd5b5050506020604051035173ffffffffffffffffffffffffffffffffffffffff168673ffffffffffffffffffffffffffffffffffffffff1614905095945050505050565b6000808284611c609190614324565b905083811015611ca5576040517f08c379a0000000000000000000000000000000000000000000000000000000008152600401611c9c90613fbf565b60405180910390fd5b8091505092915050565b6000611cbd8260000161274d565b9050919050565b6000611ccf82611a63565b611d0e576040517f08c379a0000000000000000000000000000000000000000000000000000000008152600401611d059061401f565b60405180910390fd5b6000611d1983611147565b90508073ffffffffffffffffffffffffffffffffffffffff168473ffffffffffffffffffffffffffffffffffffffff161480611d8857508373ffffffffffffffffffffffffffffffffffffffff16611d70846109e2565b73ffffffffffffffffffffffffffffffffffffffff16145b80611d995750611d9881856118ee565b5b91505092915050565b8273ffffffffffffffffffffffffffffffffffffffff16611dc282611147565b73ffffffffffffffffffffffffffffffffffffffff1614611e18576040517f08c379a0000000000000000000000000000000000000000000000000000000008152600401611e0f9061413f565b60405180910390fd5b600073ffffffffffffffffffffffffffffffffffffffff168273ffffffffffffffffffffffffffffffffffffffff161415611e88576040517f08c379a0000000000000000000000000000000000000000000000000000000008152600401611e7f90613fdf565b60405180910390fd5b611e9383838361275e565b611e9e600082611a8f565b611eef81600160008673ffffffffffffffffffffffffffffffffffffffff1673ffffffffffffffffffffffffffffffffffffffff16815260200190815260200160002061276390919063ffffffff16565b50611f4181600160008573ffffffffffffffffffffffffffffffffffffffff1673ffffffffffffffffffffffffffffffffffffffff16815260200190815260200160002061277d90919063ffffffff16565b50611f58818360026127979092919063ffffffff16565b50808273ffffffffffffffffffffffffffffffffffffffff168473ffffffffffffffffffffffffffffffffffffffff167fddf252ad1be2c89b69c2b068fc378daa952ba7f163c4a11628f55a4df523b3ef60405160405180910390a4505050565b611fe181600a6000858152602001908152602001600020600001611a3390919063ffffffff16565b1561204957611fee611a80565b73ffffffffffffffffffffffffffffffffffffffff168173ffffffffffffffffffffffffffffffffffffffff16837f2f8788117e7eff1d82e926ec794901d17c78024a50270940304540a733656f0d60405160405180910390a45b5050565b600061205c83600001836127cc565b60001c905092915050565b61208f81600a600085815260200190815260200160002060000161286690919063ffffffff16565b156120f75761209c611a80565b73ffffffffffffffffffffffffffffffffffffffff168173ffffffffffffffffffffffffffffffffffffffff16837ff6391f5c32d9c69d2a47ea670b442974b53935d1edc7fd64eb21e047a839171b60405160405180910390a45b5050565b600073ffffffffffffffffffffffffffffffffffffffff168273ffffffffffffffffffffffffffffffffffffffff16141561216b576040517f08c379a0000000000000000000000000000000000000000000000000000000008152600401612162906140df565b60405180910390fd5b61217481611a63565b156121b4576040517f08c379a00000000000000000000000000000000000000000000000000000000081526004016121ab90613f9f565b60405180910390fd5b6121c06000838361275e565b61221181600160008573ffffffffffffffffffffffffffffffffffffffff1673ffffffffffffffffffffffffffffffffffffffff16815260200190815260200160002061277d90919063ffffffff16565b50612228818360026127979092919063ffffffff16565b50808273ffffffffffffffffffffffffffffffffffffffff16600073ffffffffffffffffffffffffffffffffffffffff167fddf252ad1be2c89b69c2b068fc378daa952ba7f163c4a11628f55a4df523b3ef60405160405180910390a45050565b60008060008061229c8660000186612896565b915091508160001c8160001c9350935050509250929050565b60006122c8846000018460001b84612946565b60001c90509392505050565b60006122e282600001612a0d565b9050919050565b60006122f883600001836127cc565b60001c905092915050565b600061232b836000018373ffffffffffffffffffffffffffffffffffffffff1660001b612a1e565b905092915050565b600081806020019051810190612349919061368a565b905061235583826125ae565b505050565b612365848484611da2565b61237184848484612a41565b6123b0576040517f08c379a00000000000000000000000000000000000000000000000000000000081526004016123a790613f5f565b60405180910390fd5b50505050565b606060008214156123fe576040518060400160405280600181526020017f30000000000000000000000000000000000000000000000000000000000000008152509050612570565b600082905060005b600082146124305780806124199061454b565b915050600a82612429919061437a565b9150612406565b60008167ffffffffffffffff811115612472577f4e487b7100000000000000000000000000000000000000000000000000000000600052604160045260246000fd5b6040519080825280601f01601f1916602001820160405280156124a45781602001600182028036833780820191505090505b50905060006001836124b691906143ab565b90508593505b6000841461256857600a846124d191906145c2565b60306124dd9190614324565b60f81b8282806124ec906144be565b935081518110612525577f4e487b7100000000000000000000000000000000000000000000000000000000600052603260045260246000fd5b60200101907effffffffffffffffffffffffffffffffffffffffffffffffffffffffffffff1916908160001a905350600a84612561919061437a565b93506124bc565b819450505050505b919050565b600061258382600001612a0d565b9050919050565b6001816000016000828254019250508190555050565b600081600001549050919050565b6125b782611a63565b6125f6576040517f08c379a00000000000000000000000000000000000000000000000000000000081526004016125ed9061411f565b60405180910390fd5b8060086000848152602001908152602001600020908051906020019061261d929190612fe9565b505050565b600061262e8383612a1e565b61268757826000018290806001815401808255809150506001900390600052602060002001600090919091909150558260000180549050836001016000848152602001908152602001600020819055506001905061268c565b600090505b92915050565b60006126a4836000018360001b612ba5565b905092915050565b6000604051806080016040528060438152602001614e376043913980519060200120826000015183602001518460400151805190602001206040516020016126f79493929190613e2f565b604051602081830303815290604052805190602001209050919050565b600061271e610e3b565b82604051602001612730929190613d1d565b604051602081830303815290604052805190602001209050919050565b600081600001805490509050919050565b505050565b6000612775836000018360001b612bc8565b905092915050565b600061278f836000018360001b612622565b905092915050565b60006127c3846000018460001b8473ffffffffffffffffffffffffffffffffffffffff1660001b612d52565b90509392505050565b600081836000018054905011612817576040517f08c379a000000000000000000000000000000000000000000000000000000000815260040161280e90613f1f565b60405180910390fd5b826000018281548110612853577f4e487b7100000000000000000000000000000000000000000000000000000000600052603260045260246000fd5b9060005260206000200154905092915050565b600061288e836000018373ffffffffffffffffffffffffffffffffffffffff1660001b612bc8565b905092915050565b600080828460000180549050116128e2576040517f08c379a00000000000000000000000000000000000000000000000000000000081526004016128d9906140bf565b60405180910390fd5b6000846000018481548110612920577f4e487b7100000000000000000000000000000000000000000000000000000000600052603260045260246000fd5b906000526020600020906002020190508060000154816001015492509250509250929050565b600080846001016000858152602001908152602001600020549050600081141583906129a8576040517f08c379a000000000000000000000000000000000000000000000000000000000815260040161299f9190613edb565b60405180910390fd5b50846000016001826129ba91906143ab565b815481106129f1577f4e487b7100000000000000000000000000000000000000000000000000000000600052603260045260246000fd5b9060005260206000209060020201600101549150509392505050565b600081600001805490509050919050565b600080836001016000848152602001908152602001600020541415905092915050565b6000612a628473ffffffffffffffffffffffffffffffffffffffff16612e64565b612a6f5760019050612b9d565b6000612b3663150b7a0260e01b612a84611a80565b888787604051602401612a9a9493929190613d6f565b604051602081830303815290604052907bffffffffffffffffffffffffffffffffffffffffffffffffffffffff19166020820180517bffffffffffffffffffffffffffffffffffffffffffffffffffffffff8381831617835250505050604051806060016040528060328152602001614e05603291398773ffffffffffffffffffffffffffffffffffffffff16612eaf9092919063ffffffff16565b9050600081806020019051810190612b4e9190613661565b905063150b7a0260e01b7bffffffffffffffffffffffffffffffffffffffffffffffffffffffff1916817bffffffffffffffffffffffffffffffffffffffffffffffffffffffff191614925050505b949350505050565b600080836001016000848152602001908152602001600020541415905092915050565b60008083600101600084815260200190815260200160002054905060008114612d46576000600182612bfa91906143ab565b9050600060018660000180549050612c1291906143ab565b90506000866000018281548110612c52577f4e487b7100000000000000000000000000000000000000000000000000000000600052603260045260246000fd5b9060005260206000200154905080876000018481548110612c9c577f4e487b7100000000000000000000000000000000000000000000000000000000600052603260045260246000fd5b9060005260206000200181905550600183612cb79190614324565b8760010160008381526020019081526020016000208190555086600001805480612d0a577f4e487b7100000000000000000000000000000000000000000000000000000000600052603160045260246000fd5b60019003818190600052602060002001600090559055866001016000878152602001908152602001600020600090556001945050505050612d4c565b60009150505b92915050565b6000808460010160008581526020019081526020016000205490506000811415612df957846000016040518060400160405280868152602001858152509080600181540180825580915050600190039060005260206000209060020201600090919091909150600082015181600001556020820151816001015550508460000180549050856001016000868152602001908152602001600020819055506001915050612e5d565b8285600001600183612e0b91906143ab565b81548110612e42577f4e487b7100000000000000000000000000000000000000000000000000000000600052603260045260246000fd5b90600052602060002090600202016001018190555060009150505b9392505050565b60008060007fc5d2460186f7233c927e7db2dcc703c0e500b653ca82273b7bfad8045d85a47060001b9050833f9150808214158015612ea657506000801b8214155b92505050919050565b6060612ebe8484600085612ec7565b90509392505050565b6060612ed285612e64565b612f11576040517f08c379a0000000000000000000000000000000000000000000000000000000008152600401612f08906141df565b60405180910390fd5b6000808673ffffffffffffffffffffffffffffffffffffffff168587604051612f3a9190613cba565b60006040518083038185875af1925050503d8060008114612f77576040519150601f19603f3d011682016040523d82523d6000602084013e612f7c565b606091505b50915091508115612f91578092505050612fe1565b600081511115612fa45780518082602001fd5b836040517f08c379a0000000000000000000000000000000000000000000000000000000008152600401612fd89190613edb565b60405180910390fd5b949350505050565b828054612ff5906144e8565b90600052602060002090601f016020900481019282613017576000855561305e565b82601f1061303057805160ff191683800117855561305e565b8280016001018555821561305e579182015b8281111561305d578251825591602001919060010190613042565b5b50905061306b919061306f565b5090565b5b80821115613088576000816000905550600101613070565b5090565b600061309f61309a8461425f565b61423a565b9050828152602081018484840111156130b757600080fd5b6130c284828561447c565b509392505050565b60006130dd6130d884614290565b61423a565b9050828152602081018484840111156130f557600080fd5b61310084828561447c565b509392505050565b600061311b61311684614290565b61423a565b90508281526020810184848401111561313357600080fd5b61313e84828561448b565b509392505050565b60008135905061315581614d7a565b92915050565b60008135905061316a81614d91565b92915050565b60008135905061317f81614da8565b92915050565b60008135905061319481614dbf565b92915050565b6000815190506131a981614dbf565b92915050565b60008083601f8401126131c157600080fd5b8235905067ffffffffffffffff8111156131da57600080fd5b6020830191508360018202830111156131f257600080fd5b9250929050565b600082601f83011261320a57600080fd5b813561321a84826020860161308c565b91505092915050565b600082601f83011261323457600080fd5b81356132448482602086016130ca565b91505092915050565b600082601f83011261325e57600080fd5b815161326e848260208601613108565b91505092915050565b60008135905061328681614dd6565b92915050565b60008135905061329b81614ded565b92915050565b6000602082840312156132b357600080fd5b60006132c184828501613146565b91505092915050565b600080604083850312156132dd57600080fd5b60006132eb85828601613146565b92505060206132fc85828601613146565b9150509250929050565b60008060006060848603121561331b57600080fd5b600061332986828701613146565b935050602061333a86828701613146565b925050604061334b86828701613277565b9150509250925092565b6000806000806080858703121561336b57600080fd5b600061337987828801613146565b945050602061338a87828801613146565b935050604061339b87828801613277565b925050606085013567ffffffffffffffff8111156133b857600080fd5b6133c4878288016131f9565b91505092959194509250565b600080604083850312156133e357600080fd5b60006133f185828601613146565b92505060206134028582860161315b565b9150509250929050565b600080600080600060a0868803121561342457600080fd5b600061343288828901613146565b955050602086013567ffffffffffffffff81111561344f57600080fd5b61345b888289016131f9565b945050604061346c88828901613170565b935050606061347d88828901613170565b925050608061348e8882890161328c565b9150509295509295909350565b600080604083850312156134ae57600080fd5b60006134bc85828601613146565b925050602083013567ffffffffffffffff8111156134d957600080fd5b6134e585828601613223565b9150509250929050565b6000806040838503121561350257600080fd5b600061351085828601613146565b925050602061352185828601613277565b9150509250929050565b6000806000806060858703121561354157600080fd5b600061354f87828801613146565b945050602061356087828801613277565b935050604085013567ffffffffffffffff81111561357d57600080fd5b613589878288016131af565b925092505092959194509250565b6000602082840312156135a957600080fd5b60006135b784828501613170565b91505092915050565b600080604083850312156135d357600080fd5b60006135e185828601613170565b92505060206135f285828601613146565b9150509250929050565b6000806040838503121561360f57600080fd5b600061361d85828601613170565b925050602061362e85828601613277565b9150509250929050565b60006020828403121561364a57600080fd5b600061365884828501613185565b91505092915050565b60006020828403121561367357600080fd5b60006136818482850161319a565b91505092915050565b60006020828403121561369c57600080fd5b600082015167ffffffffffffffff8111156136b657600080fd5b6136c28482850161324d565b91505092915050565b6000602082840312156136dd57600080fd5b60006136eb84828501613277565b91505092915050565b6136fd816143f1565b82525050565b61370c816143df565b82525050565b61372361371e826143df565b614594565b82525050565b61373281614403565b82525050565b6137418161440f565b82525050565b6137586137538261440f565b6145a6565b82525050565b6000613769826142d6565b61377381856142ec565b935061378381856020860161448b565b61378c816146af565b840191505092915050565b60006137a2826142d6565b6137ac81856142fd565b93506137bc81856020860161448b565b80840191505092915050565b60006137d3826142e1565b6137dd8185614308565b93506137ed81856020860161448b565b6137f6816146af565b840191505092915050565b600061380c826142e1565b6138168185614319565b935061382681856020860161448b565b80840191505092915050565b6000815461383f816144e8565b6138498186614308565b945060018216600081146138645760018114613876576138a9565b60ff19831686526020860193506138a9565b61387f856142c1565b60005b838110156138a157815481890152600182019150602081019050613882565b808801955050505b50505092915050565b600081546138bf816144e8565b6138c98186614319565b945060018216600081146138e457600181146138f557613928565b60ff19831686528186019350613928565b6138fe856142c1565b60005b8381101561392057815481890152600182019150602081019050613901565b838801955050505b50505092915050565b600061393e602283614308565b9150613949826146cd565b604082019050919050565b6000613961602f83614308565b915061396c8261471c565b604082019050919050565b6000613984603283614308565b915061398f8261476b565b604082019050919050565b60006139a7601c83614308565b91506139b2826147ba565b602082019050919050565b60006139ca601c83614308565b91506139d5826147e3565b602082019050919050565b60006139ed600283614319565b91506139f88261480c565b600282019050919050565b6000613a10601b83614308565b9150613a1b82614835565b602082019050919050565b6000613a33602483614308565b9150613a3e8261485e565b604082019050919050565b6000613a56601983614308565b9150613a61826148ad565b602082019050919050565b6000613a79602c83614308565b9150613a84826148d6565b604082019050919050565b6000613a9c603083614308565b9150613aa782614925565b604082019050919050565b6000613abf602583614308565b9150613aca82614974565b604082019050919050565b6000613ae2603883614308565b9150613aed826149c3565b604082019050919050565b6000613b05602a83614308565b9150613b1082614a12565b604082019050919050565b6000613b28602283614308565b9150613b3382614a61565b604082019050919050565b6000613b4b602083614308565b9150613b5682614ab0565b602082019050919050565b6000613b6e602c83614308565b9150613b7982614ad9565b604082019050919050565b6000613b91602c83614308565b9150613b9c82614b28565b604082019050919050565b6000613bb4602983614308565b9150613bbf82614b77565b604082019050919050565b6000613bd7602183614308565b9150613be282614bc6565b604082019050919050565b6000613bfa602f83614308565b9150613c0582614c15565b604082019050919050565b6000613c1d602183614308565b9150613c2882614c64565b604082019050919050565b6000613c40603183614308565b9150613c4b82614cb3565b604082019050919050565b6000613c63601d83614308565b9150613c6e82614d02565b602082019050919050565b6000613c86602f83614308565b9150613c9182614d2b565b604082019050919050565b613ca581614465565b82525050565b613cb48161446f565b82525050565b6000613cc68284613797565b915081905092915050565b6000613cdd8285613797565b9150613ce98284613712565b6014820191508190509392505050565b6000613d0582856138b2565b9150613d118284613801565b91508190509392505050565b6000613d28826139e0565b9150613d348285613747565b602082019150613d448284613747565b6020820191508190509392505050565b6000602082019050613d696000830184613703565b92915050565b6000608082019050613d8460008301876136f4565b613d916020830186613703565b613d9e6040830185613c9c565b8181036060830152613db0818461375e565b905095945050505050565b6000606082019050613dd06000830186613703565b613ddd60208301856136f4565b8181036040830152613def818461375e565b9050949350505050565b6000602082019050613e0e6000830184613729565b92915050565b6000602082019050613e296000830184613738565b92915050565b6000608082019050613e446000830187613738565b613e516020830186613c9c565b613e5e6040830185613703565b613e6b6060830184613738565b95945050505050565b6000608082019050613e896000830187613738565b613e966020830186613cab565b613ea36040830185613738565b613eb06060830184613738565b95945050505050565b60006020820190508181036000830152613ed3818461375e565b905092915050565b60006020820190508181036000830152613ef581846137c8565b905092915050565b60006020820190508181036000830152613f178184613832565b905092915050565b60006020820190508181036000830152613f3881613931565b9050919050565b60006020820190508181036000830152613f5881613954565b9050919050565b60006020820190508181036000830152613f7881613977565b9050919050565b60006020820190508181036000830152613f988161399a565b9050919050565b60006020820190508181036000830152613fb8816139bd565b9050919050565b60006020820190508181036000830152613fd881613a03565b9050919050565b60006020820190508181036000830152613ff881613a26565b9050919050565b6000602082019050818103600083015261401881613a49565b9050919050565b6000602082019050818103600083015261403881613a6c565b9050919050565b6000602082019050818103600083015261405881613a8f565b9050919050565b6000602082019050818103600083015261407881613ab2565b9050919050565b6000602082019050818103600083015261409881613ad5565b9050919050565b600060208201905081810360008301526140b881613af8565b9050919050565b600060208201905081810360008301526140d881613b1b565b9050919050565b600060208201905081810360008301526140f881613b3e565b9050919050565b6000602082019050818103600083015261411881613b61565b9050919050565b6000602082019050818103600083015261413881613b84565b9050919050565b6000602082019050818103600083015261415881613ba7565b9050919050565b6000602082019050818103600083015261417881613bca565b9050919050565b6000602082019050818103600083015261419881613bed565b9050919050565b600060208201905081810360008301526141b881613c10565b9050919050565b600060208201905081810360008301526141d881613c33565b9050919050565b600060208201905081810360008301526141f881613c56565b9050919050565b6000602082019050818103600083015261421881613c79565b9050919050565b60006020820190506142346000830184613c9c565b92915050565b6000614244614255565b9050614250828261451a565b919050565b6000604051905090565b600067ffffffffffffffff82111561427a57614279614680565b5b614283826146af565b9050602081019050919050565b600067ffffffffffffffff8211156142ab576142aa614680565b5b6142b4826146af565b9050602081019050919050565b60008190508160005260206000209050919050565b600081519050919050565b600081519050919050565b600082825260208201905092915050565b600081905092915050565b600082825260208201905092915050565b600081905092915050565b600061432f82614465565b915061433a83614465565b9250827fffffffffffffffffffffffffffffffffffffffffffffffffffffffffffffffff0382111561436f5761436e6145f3565b5b828201905092915050565b600061438582614465565b915061439083614465565b9250826143a05761439f614622565b5b828204905092915050565b60006143b682614465565b91506143c183614465565b9250828210156143d4576143d36145f3565b5b828203905092915050565b60006143ea82614445565b9050919050565b60006143fc82614445565b9050919050565b60008115159050919050565b6000819050919050565b60007fffffffff0000000000000000000000000000000000000000000000000000000082169050919050565b600073ffffffffffffffffffffffffffffffffffffffff82169050919050565b6000819050919050565b600060ff82169050919050565b82818337600083830152505050565b60005b838110156144a957808201518184015260208101905061448e565b838111156144b8576000848401525b50505050565b60006144c982614465565b915060008214156144dd576144dc6145f3565b5b600182039050919050565b6000600282049050600182168061450057607f821691505b6020821081141561451457614513614651565b5b50919050565b614523826146af565b810181811067ffffffffffffffff8211171561454257614541614680565b5b80604052505050565b600061455682614465565b91507fffffffffffffffffffffffffffffffffffffffffffffffffffffffffffffffff821415614589576145886145f3565b5b600182019050919050565b600061459f826145b0565b9050919050565b6000819050919050565b60006145bb826146c0565b9050919050565b60006145cd82614465565b91506145d883614465565b9250826145e8576145e7614622565b5b828206905092915050565b7f4e487b7100000000000000000000000000000000000000000000000000000000600052601160045260246000fd5b7f4e487b7100000000000000000000000000000000000000000000000000000000600052601260045260246000fd5b7f4e487b7100000000000000000000000000000000000000000000000000000000600052602260045260246000fd5b7f4e487b7100000000000000000000000000000000000000000000000000000000600052604160045260246000fd5b6000601f19601f8301169050919050565b60008160601b9050919050565b7f456e756d657261626c655365743a20696e646578206f7574206f6620626f756e60008201527f6473000000000000000000000000000000000000000000000000000000000000602082015250565b7f416363657373436f6e74726f6c3a2073656e646572206d75737420626520616e60008201527f2061646d696e20746f206772616e740000000000000000000000000000000000602082015250565b7f4552433732313a207472616e7366657220746f206e6f6e20455243373231526560008201527f63656976657220696d706c656d656e7465720000000000000000000000000000602082015250565b7f46756e6374696f6e2063616c6c206e6f74207375636365737366756c00000000600082015250565b7f4552433732313a20746f6b656e20616c7265616479206d696e74656400000000600082015250565b7f1901000000000000000000000000000000000000000000000000000000000000600082015250565b7f536166654d6174683a206164646974696f6e206f766572666c6f770000000000600082015250565b7f4552433732313a207472616e7366657220746f20746865207a65726f2061646460008201527f7265737300000000000000000000000000000000000000000000000000000000602082015250565b7f4552433732313a20617070726f766520746f2063616c6c657200000000000000600082015250565b7f4552433732313a206f70657261746f7220717565727920666f72206e6f6e657860008201527f697374656e7420746f6b656e0000000000000000000000000000000000000000602082015250565b7f416363657373436f6e74726f6c3a2073656e646572206d75737420626520616e60008201527f2061646d696e20746f207265766f6b6500000000000000000000000000000000602082015250565b7f4e61746976654d6574615472616e73616374696f6e3a20494e56414c49445f5360008201527f49474e4552000000000000000000000000000000000000000000000000000000602082015250565b7f4552433732313a20617070726f76652063616c6c6572206973206e6f74206f7760008201527f6e6572206e6f7220617070726f76656420666f7220616c6c0000000000000000602082015250565b7f4552433732313a2062616c616e636520717565727920666f7220746865207a6560008201527f726f206164647265737300000000000000000000000000000000000000000000602082015250565b7f456e756d657261626c654d61703a20696e646578206f7574206f6620626f756e60008201527f6473000000000000000000000000000000000000000000000000000000000000602082015250565b7f4552433732313a206d696e7420746f20746865207a65726f2061646472657373600082015250565b7f4552433732313a20617070726f76656420717565727920666f72206e6f6e657860008201527f697374656e7420746f6b656e0000000000000000000000000000000000000000602082015250565b7f4552433732314d657461646174613a2055524920736574206f66206e6f6e657860008201527f697374656e7420746f6b656e0000000000000000000000000000000000000000602082015250565b7f4552433732313a207472616e73666572206f6620746f6b656e2074686174206960008201527f73206e6f74206f776e0000000000000000000000000000000000000000000000602082015250565b7f5369676e657220616e64207369676e617475726520646f206e6f74206d61746360008201527f6800000000000000000000000000000000000000000000000000000000000000602082015250565b7f4552433732314d657461646174613a2055524920717565727920666f72206e6f60008201527f6e6578697374656e7420746f6b656e0000000000000000000000000000000000602082015250565b7f4552433732313a20617070726f76616c20746f2063757272656e74206f776e6560008201527f7200000000000000000000000000000000000000000000000000000000000000602082015250565b7f4552433732313a207472616e736665722063616c6c6572206973206e6f74206f60008201527f776e6572206e6f7220617070726f766564000000000000000000000000000000602082015250565b7f416464726573733a2063616c6c20746f206e6f6e2d636f6e7472616374000000600082015250565b7f416363657373436f6e74726f6c3a2063616e206f6e6c792072656e6f756e636560008201527f20726f6c657320666f722073656c660000000000000000000000000000000000602082015250565b614d83816143df565b8114614d8e57600080fd5b50565b614d9a81614403565b8114614da557600080fd5b50565b614db18161440f565b8114614dbc57600080fd5b50565b614dc881614419565b8114614dd357600080fd5b50565b614ddf81614465565b8114614dea57600080fd5b50565b614df68161446f565b8114614e0157600080fd5b5056fe4552433732313a207472616e7366657220746f206e6f6e20455243373231526563656976657220696d706c656d656e7465724d6574615472616e73616374696f6e2875696e74323536206e6f6e63652c616464726573732066726f6d2c62797465732066756e6374696f6e5369676e6174757265294552433732313a206f776e657220717565727920666f72206e6f6e6578697374656e7420746f6b656ea264697066735822122089297c4d9fa6229e69f24fd10fe211e4e2e81ab784b425e42779a1266ba4140f64736f6c63430008040033454950373132446f6d61696e28737472696e67206e616d652c737472696e672076657273696f6e2c6164647265737320766572696679696e67436f6e74726163742c627974657333322073616c7429",
  "linkReferences": {},
  "deployedLinkReferences": {}
}