{
  "_format": "hh-sol-artifact-1",
  "contractName": "KoChildMintableERC721",
  "sourceName": "contracts/KoChildMintableERC721.sol",
  "abi": [
    {
      "inputs": [
        {
          "internalType": "string",
          "name": "name_",
          "type": "string"
        },
        {
          "internalType": "string",
          "name": "symbol_",
          "type": "string"
        },
        {
          "internalType": "address",
          "name": "childChainManager",
          "type": "address"
        }
      ],
      "stateMutability": "nonpayable",
      "type": "constructor"
    },
    {
      "anonymous": false,
      "inputs": [
        {
          "indexed": true,
          "internalType": "address",
          "name": "owner",
          "type": "address"
        },
        {
          "indexed": true,
          "internalType": "address",
          "name": "approved",
          "type": "address"
        },
        {
          "indexed": true,
          "internalType": "uint256",
          "name": "tokenId",
          "type": "uint256"
        }
      ],
      "name": "Approval",
      "type": "event"
    },
    {
      "anonymous": false,
      "inputs": [
        {
          "indexed": true,
          "internalType": "address",
          "name": "owner",
          "type": "address"
        },
        {
          "indexed": true,
          "internalType": "address",
          "name": "operator",
          "type": "address"
        },
        {
          "indexed": false,
          "internalType": "bool",
          "name": "approved",
          "type": "bool"
        }
      ],
      "name": "ApprovalForAll",
      "type": "event"
    },
    {
      "anonymous": false,
      "inputs": [
        {
          "indexed": false,
          "internalType": "address",
          "name": "userAddress",
          "type": "address"
        },
        {
          "indexed": false,
          "internalType": "address payable",
          "name": "relayerAddress",
          "type": "address"
        },
        {
          "indexed": false,
          "internalType": "bytes",
          "name": "functionSignature",
          "type": "bytes"
        }
      ],
      "name": "MetaTransactionExecuted",
      "type": "event"
    },
    {
      "anonymous": false,
      "inputs": [
        {
          "indexed": true,
          "internalType": "bytes32",
          "name": "role",
          "type": "bytes32"
        },
        {
          "indexed": true,
          "internalType": "bytes32",
          "name": "previousAdminRole",
          "type": "bytes32"
        },
        {
          "indexed": true,
          "internalType": "bytes32",
          "name": "newAdminRole",
          "type": "bytes32"
        }
      ],
      "name": "RoleAdminChanged",
      "type": "event"
    },
    {
      "anonymous": false,
      "inputs": [
        {
          "indexed": true,
          "internalType": "bytes32",
          "name": "role",
          "type": "bytes32"
        },
        {
          "indexed": true,
          "internalType": "address",
          "name": "account",
          "type": "address"
        },
        {
          "indexed": true,
          "internalType": "address",
          "name": "sender",
          "type": "address"
        }
      ],
      "name": "RoleGranted",
      "type": "event"
    },
    {
      "anonymous": false,
      "inputs": [
        {
          "indexed": true,
          "internalType": "bytes32",
          "name": "role",
          "type": "bytes32"
        },
        {
          "indexed": true,
          "internalType": "address",
          "name": "account",
          "type": "address"
        },
        {
          "indexed": true,
          "internalType": "address",
          "name": "sender",
          "type": "address"
        }
      ],
      "name": "RoleRevoked",
      "type": "event"
    },
    {
      "anonymous": false,
      "inputs": [
        {
          "indexed": false,
          "internalType": "address",
          "name": "recipient",
          "type": "address"
        },
        {
          "indexed": false,
          "internalType": "uint256",
          "name": "tokenId",
          "type": "uint256"
        }
      ],
      "name": "TokenMinted",
      "type": "event"
    },
    {
      "anonymous": false,
      "inputs": [
        {
          "indexed": true,
          "internalType": "address",
          "name": "from",
          "type": "address"
        },
        {
          "indexed": true,
          "internalType": "address",
          "name": "to",
          "type": "address"
        },
        {
          "indexed": true,
          "internalType": "uint256",
          "name": "tokenId",
          "type": "uint256"
        }
      ],
      "name": "Transfer",
      "type": "event"
    },
    {
      "anonymous": false,
      "inputs": [
        {
          "indexed": true,
          "internalType": "address",
          "name": "from",
          "type": "address"
        },
        {
          "indexed": true,
          "internalType": "address",
          "name": "to",
          "type": "address"
        },
        {
          "indexed": true,
          "internalType": "uint256",
          "name": "tokenId",
          "type": "uint256"
        },
        {
          "indexed": false,
          "internalType": "bytes",
          "name": "metaData",
          "type": "bytes"
        }
      ],
      "name": "TransferWithMetadata",
      "type": "event"
    },
    {
      "anonymous": false,
      "inputs": [
        {
          "indexed": true,
          "internalType": "address",
          "name": "user",
          "type": "address"
        },
        {
          "indexed": false,
          "internalType": "uint256[]",
          "name": "tokenIds",
          "type": "uint256[]"
        }
      ],
      "name": "WithdrawnBatch",
      "type": "event"
    },
    {
      "inputs": [],
      "name": "BATCH_LIMIT",
      "outputs": [
        {
          "internalType": "uint256",
          "name": "",
          "type": "uint256"
        }
      ],
      "stateMutability": "view",
      "type": "function"
    },
    {
      "inputs": [],
      "name": "DEFAULT_ADMIN_ROLE",
      "outputs": [
        {
          "internalType": "bytes32",
          "name": "",
          "type": "bytes32"
        }
      ],
      "stateMutability": "view",
      "type": "function"
    },
    {
      "inputs": [],
      "name": "DEPOSITOR_ROLE",
      "outputs": [
        {
          "internalType": "bytes32",
          "name": "",
          "type": "bytes32"
        }
      ],
      "stateMutability": "view",
      "type": "function"
    },
    {
      "inputs": [],
      "name": "ERC712_VERSION",
      "outputs": [
        {
          "internalType": "string",
          "name": "",
          "type": "string"
        }
      ],
      "stateMutability": "view",
      "type": "function"
    },
    {
      "inputs": [
        {
          "internalType": "address",
          "name": "to",
          "type": "address"
        },
        {
          "internalType": "uint256",
          "name": "tokenId",
          "type": "uint256"
        }
      ],
      "name": "approve",
      "outputs": [],
      "stateMutability": "nonpayable",
      "type": "function"
    },
    {
      "inputs": [
        {
          "internalType": "address",
          "name": "owner",
          "type": "address"
        }
      ],
      "name": "balanceOf",
      "outputs": [
        {
          "internalType": "uint256",
          "name": "",
          "type": "uint256"
        }
      ],
      "stateMutability": "view",
      "type": "function"
    },
    {
      "inputs": [],
      "name": "baseURI",
      "outputs": [
        {
          "internalType": "string",
          "name": "",
          "type": "string"
        }
      ],
      "stateMutability": "view",
      "type": "function"
    },
    {
      "inputs": [
        {
          "internalType": "address",
          "name": "user",
          "type": "address"
        },
        {
          "internalType": "bytes",
          "name": "depositData",
          "type": "bytes"
        }
      ],
      "name": "deposit",
      "outputs": [],
      "stateMutability": "nonpayable",
      "type": "function"
    },
    {
      "inputs": [
        {
          "internalType": "uint256",
          "name": "tokenId",
          "type": "uint256"
        }
      ],
      "name": "encodeTokenMetadata",
      "outputs": [
        {
          "internalType": "bytes",
          "name": "",
          "type": "bytes"
        }
      ],
      "stateMutability": "view",
      "type": "function"
    },
    {
      "inputs": [
        {
          "internalType": "address",
          "name": "userAddress",
          "type": "address"
        },
        {
          "internalType": "bytes",
          "name": "functionSignature",
          "type": "bytes"
        },
        {
          "internalType": "bytes32",
          "name": "sigR",
          "type": "bytes32"
        },
        {
          "internalType": "bytes32",
          "name": "sigS",
          "type": "bytes32"
        },
        {
          "internalType": "uint8",
          "name": "sigV",
          "type": "uint8"
        }
      ],
      "name": "executeMetaTransaction",
      "outputs": [
        {
          "internalType": "bytes",
          "name": "",
          "type": "bytes"
        }
      ],
      "stateMutability": "payable",
      "type": "function"
    },
    {
      "inputs": [
        {
          "internalType": "uint256",
          "name": "tokenId",
          "type": "uint256"
        }
      ],
      "name": "getApproved",
      "outputs": [
        {
          "internalType": "address",
          "name": "",
          "type": "address"
        }
      ],
      "stateMutability": "view",
      "type": "function"
    },
    {
      "inputs": [],
      "name": "getChainId",
      "outputs": [
        {
          "internalType": "uint256",
          "name": "",
          "type": "uint256"
        }
      ],
      "stateMutability": "view",
      "type": "function"
    },
    {
      "inputs": [],
      "name": "getDomainSeperator",
      "outputs": [
        {
          "internalType": "bytes32",
          "name": "",
          "type": "bytes32"
        }
      ],
      "stateMutability": "view",
      "type": "function"
    },
    {
      "inputs": [
        {
          "internalType": "address",
          "name": "user",
          "type": "address"
        }
      ],
      "name": "getNonce",
      "outputs": [
        {
          "internalType": "uint256",
          "name": "nonce",
          "type": "uint256"
        }
      ],
      "stateMutability": "view",
      "type": "function"
    },
    {
      "inputs": [
        {
          "internalType": "bytes32",
          "name": "role",
          "type": "bytes32"
        }
      ],
      "name": "getRoleAdmin",
      "outputs": [
        {
          "internalType": "bytes32",
          "name": "",
          "type": "bytes32"
        }
      ],
      "stateMutability": "view",
      "type": "function"
    },
    {
      "inputs": [
        {
          "internalType": "bytes32",
          "name": "role",
          "type": "bytes32"
        },
        {
          "internalType": "uint256",
          "name": "index",
          "type": "uint256"
        }
      ],
      "name": "getRoleMember",
      "outputs": [
        {
          "internalType": "address",
          "name": "",
          "type": "address"
        }
      ],
      "stateMutability": "view",
      "type": "function"
    },
    {
      "inputs": [
        {
          "internalType": "bytes32",
          "name": "role",
          "type": "bytes32"
        }
      ],
      "name": "getRoleMemberCount",
      "outputs": [
        {
          "internalType": "uint256",
          "name": "",
          "type": "uint256"
        }
      ],
      "stateMutability": "view",
      "type": "function"
    },
    {
      "inputs": [
        {
          "internalType": "bytes32",
          "name": "role",
          "type": "bytes32"
        },
        {
          "internalType": "address",
          "name": "account",
          "type": "address"
        }
      ],
      "name": "grantRole",
      "outputs": [],
      "stateMutability": "nonpayable",
      "type": "function"
    },
    {
      "inputs": [
        {
          "internalType": "bytes32",
          "name": "role",
          "type": "bytes32"
        },
        {
          "internalType": "address",
          "name": "account",
          "type": "address"
        }
      ],
      "name": "hasRole",
      "outputs": [
        {
          "internalType": "bool",
          "name": "",
          "type": "bool"
        }
      ],
      "stateMutability": "view",
      "type": "function"
    },
    {
      "inputs": [
        {
          "internalType": "address",
          "name": "owner",
          "type": "address"
        },
        {
          "internalType": "address",
          "name": "operator",
          "type": "address"
        }
      ],
      "name": "isApprovedForAll",
      "outputs": [
        {
          "internalType": "bool",
          "name": "",
          "type": "bool"
        }
      ],
      "stateMutability": "view",
      "type": "function"
    },
    {
      "inputs": [
        {
          "internalType": "address",
          "name": "user",
          "type": "address"
        },
        {
          "internalType": "uint256",
          "name": "tokenId",
          "type": "uint256"
        }
      ],
      "name": "mint",
      "outputs": [],
      "stateMutability": "nonpayable",
      "type": "function"
    },
    {
      "inputs": [
        {
          "internalType": "address",
          "name": "recipient",
          "type": "address"
        },
        {
          "internalType": "string",
          "name": "uri",
          "type": "string"
        }
      ],
      "name": "mint",
      "outputs": [],
      "stateMutability": "nonpayable",
      "type": "function"
    },
    {
      "inputs": [],
      "name": "name",
      "outputs": [
        {
          "internalType": "string",
          "name": "",
          "type": "string"
        }
      ],
      "stateMutability": "view",
      "type": "function"
    },
    {
      "inputs": [
        {
          "internalType": "uint256",
          "name": "tokenId",
          "type": "uint256"
        }
      ],
      "name": "ownerOf",
      "outputs": [
        {
          "internalType": "address",
          "name": "",
          "type": "address"
        }
      ],
      "stateMutability": "view",
      "type": "function"
    },
    {
      "inputs": [
        {
          "internalType": "bytes32",
          "name": "role",
          "type": "bytes32"
        },
        {
          "internalType": "address",
          "name": "account",
          "type": "address"
        }
      ],
      "name": "renounceRole",
      "outputs": [],
      "stateMutability": "nonpayable",
      "type": "function"
    },
    {
      "inputs": [
        {
          "internalType": "bytes32",
          "name": "role",
          "type": "bytes32"
        },
        {
          "internalType": "address",
          "name": "account",
          "type": "address"
        }
      ],
      "name": "revokeRole",
      "outputs": [],
      "stateMutability": "nonpayable",
      "type": "function"
    },
    {
      "inputs": [
        {
          "internalType": "address",
          "name": "from",
          "type": "address"
        },
        {
          "internalType": "address",
          "name": "to",
          "type": "address"
        },
        {
          "internalType": "uint256",
          "name": "tokenId",
          "type": "uint256"
        }
      ],
      "name": "safeTransferFrom",
      "outputs": [],
      "stateMutability": "nonpayable",
      "type": "function"
    },
    {
      "inputs": [
        {
          "internalType": "address",
          "name": "from",
          "type": "address"
        },
        {
          "internalType": "address",
          "name": "to",
          "type": "address"
        },
        {
          "internalType": "uint256",
          "name": "tokenId",
          "type": "uint256"
        },
        {
          "internalType": "bytes",
          "name": "_data",
          "type": "bytes"
        }
      ],
      "name": "safeTransferFrom",
      "outputs": [],
      "stateMutability": "nonpayable",
      "type": "function"
    },
    {
      "inputs": [
        {
          "internalType": "address",
          "name": "operator",
          "type": "address"
        },
        {
          "internalType": "bool",
          "name": "approved",
          "type": "bool"
        }
      ],
      "name": "setApprovalForAll",
      "outputs": [],
      "stateMutability": "nonpayable",
      "type": "function"
    },
    {
      "inputs": [
        {
          "internalType": "bytes4",
          "name": "interfaceId",
          "type": "bytes4"
        }
      ],
      "name": "supportsInterface",
      "outputs": [
        {
          "internalType": "bool",
          "name": "",
          "type": "bool"
        }
      ],
      "stateMutability": "view",
      "type": "function"
    },
    {
      "inputs": [],
      "name": "symbol",
      "outputs": [
        {
          "internalType": "string",
          "name": "",
          "type": "string"
        }
      ],
      "stateMutability": "view",
      "type": "function"
    },
    {
      "inputs": [
        {
          "internalType": "uint256",
          "name": "index",
          "type": "uint256"
        }
      ],
      "name": "tokenByIndex",
      "outputs": [
        {
          "internalType": "uint256",
          "name": "",
          "type": "uint256"
        }
      ],
      "stateMutability": "view",
      "type": "function"
    },
    {
      "inputs": [
        {
          "internalType": "address",
          "name": "owner",
          "type": "address"
        },
        {
          "internalType": "uint256",
          "name": "index",
          "type": "uint256"
        }
      ],
      "name": "tokenOfOwnerByIndex",
      "outputs": [
        {
          "internalType": "uint256",
          "name": "",
          "type": "uint256"
        }
      ],
      "stateMutability": "view",
      "type": "function"
    },
    {
      "inputs": [
        {
          "internalType": "uint256",
          "name": "tokenId",
          "type": "uint256"
        }
      ],
      "name": "tokenURI",
      "outputs": [
        {
          "internalType": "string",
          "name": "",
          "type": "string"
        }
      ],
      "stateMutability": "view",
      "type": "function"
    },
    {
      "inputs": [],
      "name": "totalSupply",
      "outputs": [
        {
          "internalType": "uint256",
          "name": "",
          "type": "uint256"
        }
      ],
      "stateMutability": "view",
      "type": "function"
    },
    {
      "inputs": [
        {
          "internalType": "address",
          "name": "from",
          "type": "address"
        },
        {
          "internalType": "address",
          "name": "to",
          "type": "address"
        },
        {
          "internalType": "uint256",
          "name": "tokenId",
          "type": "uint256"
        }
      ],
      "name": "transferFrom",
      "outputs": [],
      "stateMutability": "nonpayable",
      "type": "function"
    },
    {
      "inputs": [
        {
          "internalType": "uint256",
          "name": "tokenId",
          "type": "uint256"
        }
      ],
      "name": "withdraw",
      "outputs": [],
      "stateMutability": "nonpayable",
      "type": "function"
    },
    {
      "inputs": [
        {
          "internalType": "uint256[]",
          "name": "tokenIds",
          "type": "uint256[]"
        }
      ],
      "name": "withdrawBatch",
      "outputs": [],
      "stateMutability": "nonpayable",
      "type": "function"
    },
    {
      "inputs": [
        {
          "internalType": "uint256",
          "name": "tokenId",
          "type": "uint256"
        }
      ],
      "name": "withdrawWithMetadata",
      "outputs": [],
      "stateMutability": "nonpayable",
      "type": "function"
    },
    {
      "inputs": [
        {
          "internalType": "uint256",
          "name": "",
          "type": "uint256"
        }
      ],
      "name": "withdrawnTokens",
      "outputs": [
        {
          "internalType": "bool",
          "name": "",
          "type": "bool"
        }
      ],
      "stateMutability": "view",
      "type": "function"
    }
  ],
  "bytecode": "0x60806040526000600d60006101000a81548160ff0219169083151502179055503480156200002c57600080fd5b50604051620065f5380380620065f5833981810160405281019062000052919062000788565b82826200006c6301ffc9a760e01b6200019e60201b60201c565b8160019080519060200190620000849291906200064f565b5080600290805190602001906200009d9291906200064f565b50620000b66380ac58cd60e01b6200019e60201b60201c565b620000ce635b5e139f60e01b6200019e60201b60201c565b620000e663780e9d6360e01b6200019e60201b60201c565b50506200012e6040518060400160405280601581526020017f4b6f4368696c644d696e7461626c6545524337323100000000000000000000008152506200027660201b60201c565b620001526000801b62000146620002b360201b60201c565b620002cf60201b60201c565b620001847f8f4f2da22e8ac8f11e15f9fc141cddbb5deea8800186560abb6e68c5496619a982620002cf60201b60201c565b6200019583620002e560201b60201c565b50505062000c0f565b63ffffffff60e01b817bffffffffffffffffffffffffffffffffffffffffffffffffffffffff191614156200020a576040517f08c379a0000000000000000000000000000000000000000000000000000000008152600401620002019062000961565b60405180910390fd5b6001600080837bffffffffffffffffffffffffffffffffffffffffffffffffffffffff19167bffffffffffffffffffffffffffffffffffffffffffffffffffffffff1916815260200190815260200160002060006101000a81548160ff02191690831515021790555050565b80604051602001620002899190620008de565b604051602081830303815290604052600c9080519060200190620002af9291906200064f565b5050565b6000620002ca6200036760201b6200207c1760201c565b905090565b620002e182826200041a60201b60201c565b5050565b600d60009054906101000a900460ff161562000338576040517f08c379a00000000000000000000000000000000000000000000000000000000081526004016200032f9062000983565b60405180910390fd5b6200034981620004be60201b60201c565b6001600d60006101000a81548160ff02191690831515021790555050565b60003073ffffffffffffffffffffffffffffffffffffffff163373ffffffffffffffffffffffffffffffffffffffff1614156200041357600080368080601f016020809104026020016040519081016040528093929190818152602001838380828437600081840152601f19601f820116905080830192505050505050509050600080369050905073ffffffffffffffffffffffffffffffffffffffff81830151169250505062000417565b3390505b90565b6200044981600b60008581526020019081526020016000206000016200056d60201b6200212d1790919060201c565b15620004ba576200045f620002b360201b60201c565b73ffffffffffffffffffffffffffffffffffffffff168173ffffffffffffffffffffffffffffffffffffffff16837f2f8788117e7eff1d82e926ec794901d17c78024a50270940304540a733656f0d60405160405180910390a45b5050565b6040518060800160405280604f8152602001620065a6604f91398051906020012081805190602001206040518060400160405280600181526020017f3100000000000000000000000000000000000000000000000000000000000000815250805190602001203062000535620005a560201b60201c565b60001b6040516020016200054e95949392919062000904565b60405160208183030381529060405280519060200120600e8190555050565b60006200059d836000018373ffffffffffffffffffffffffffffffffffffffff1660001b620005b260201b60201c565b905092915050565b6000804690508091505090565b6000620005c683836200062c60201b60201c565b6200062157826000018290806001815401808255809150506001900390600052602060002001600090919091909150558260000180549050836001016000848152602001908152602001600020819055506001905062000626565b600090505b92915050565b600080836001016000848152602001908152602001600020541415905092915050565b8280546200065d9062000a9f565b90600052602060002090601f016020900481019282620006815760008555620006cd565b82601f106200069c57805160ff1916838001178555620006cd565b82800160010185558215620006cd579182015b82811115620006cc578251825591602001919060010190620006af565b5b509050620006dc9190620006e0565b5090565b5b80821115620006fb576000816000905550600101620006e1565b5090565b6000620007166200071084620009ce565b620009a5565b9050828152602081018484840111156200072f57600080fd5b6200073c84828562000a69565b509392505050565b600081519050620007558162000bf5565b92915050565b600082601f8301126200076d57600080fd5b81516200077f848260208601620006ff565b91505092915050565b6000806000606084860312156200079e57600080fd5b600084015167ffffffffffffffff811115620007b957600080fd5b620007c7868287016200075b565b935050602084015167ffffffffffffffff811115620007e557600080fd5b620007f3868287016200075b565b9250506040620008068682870162000744565b9150509250925092565b6200081b8162000a2b565b82525050565b6200082c8162000a3f565b82525050565b60006200083f8262000a04565b6200084b818562000a20565b93506200085d81856020860162000a69565b80840191505092915050565b600062000878601a8362000a20565b9150620008858262000b7a565b601a82019050919050565b60006200089f601c8362000a0f565b9150620008ac8262000ba3565b602082019050919050565b6000620008c6600e8362000a0f565b9150620008d38262000bcc565b602082019050919050565b6000620008ec828462000832565b9150620008f98262000869565b915081905092915050565b600060a0820190506200091b600083018862000821565b6200092a602083018762000821565b62000939604083018662000821565b62000948606083018562000810565b62000957608083018462000821565b9695505050505050565b600060208201905081810360008301526200097c8162000890565b9050919050565b600060208201905081810360008301526200099e81620008b7565b9050919050565b6000620009b1620009c4565b9050620009bf828262000ad5565b919050565b6000604051905090565b600067ffffffffffffffff821115620009ec57620009eb62000b3a565b5b620009f78262000b69565b9050602081019050919050565b600081519050919050565b600082825260208201905092915050565b600081905092915050565b600062000a388262000a49565b9050919050565b6000819050919050565b600073ffffffffffffffffffffffffffffffffffffffff82169050919050565b60005b8381101562000a8957808201518184015260208101905062000a6c565b8381111562000a99576000848401525b50505050565b6000600282049050600182168062000ab857607f821691505b6020821081141562000acf5762000ace62000b0b565b5b50919050565b62000ae08262000b69565b810181811067ffffffffffffffff8211171562000b025762000b0162000b3a565b5b80604052505050565b7f4e487b7100000000000000000000000000000000000000000000000000000000600052602260045260246000fd5b7f4e487b7100000000000000000000000000000000000000000000000000000000600052604160045260246000fd5b6000601f19601f8301169050919050565b7f3a20494e53554646494349454e545f5045524d495353494f4e53000000000000600082015250565b7f4552433136353a20696e76616c696420696e7465726661636520696400000000600082015250565b7f616c726561647920696e69746564000000000000000000000000000000000000600082015250565b62000c008162000a2b565b811462000c0c57600080fd5b50565b6159878062000c1f6000396000f3fe60806040526004361061023b5760003560e01c80634f6ccce71161012e578063a22cb465116100ab578063ca15c8731161006f578063ca15c873146108fa578063cf2c52cb14610937578063d0def52114610960578063d547741f14610989578063e985e9c5146109b25761023b565b8063a22cb46514610817578063a3b0b5a314610840578063a5e584dc1461086b578063b88d4fde14610894578063c87b56dd146108bd5761023b565b806391d14854116100f257806391d14854146107305780639559c0bd1461076d57806395d89b41146107985780639c8d4156146107c3578063a217fddf146107ec5761023b565b80634f6ccce7146106115780636352211e1461064e5780636c0360eb1461068b57806370a08231146106b65780639010d07c146106f35761023b565b806323b872dd116101bc5780632f745c59116101805780632f745c591461052e5780633408e4701461056b57806336568abe1461059657806340c10f19146105bf57806342842e0e146105e85761023b565b806323b872dd14610439578063248a9ca3146104625780632d0335ab1461049f5780632e1a7d4d146104dc5780632f2ff15d146105055761023b565b80630c53c51c116102035780630c53c51c1461034b5780630f7e59701461037b5780631653c39a146103a657806318160ddd146103e357806320379ee51461040e5761023b565b806301ffc9a71461024057806306fdde031461027d57806307a974fc146102a8578063081812fc146102e5578063095ea7b314610322575b600080fd5b34801561024c57600080fd5b5061026760048036038101906102629190613eba565b6109ef565b60405161027491906147a3565b60405180910390f35b34801561028957600080fd5b50610292610a56565b60405161029f9190614885565b60405180910390f35b3480156102b457600080fd5b506102cf60048036038101906102ca9190613f4d565b610ae8565b6040516102dc91906147a3565b60405180910390f35b3480156102f157600080fd5b5061030c60048036038101906103079190613f4d565b610b08565b60405161031991906146b1565b60405180910390f35b34801561032e57600080fd5b5061034960048036038101906103449190613d57565b610b8d565b005b61036560048036038101906103609190613c74565b610ca5565b6040516103729190614863565b60405180910390f35b34801561038757600080fd5b50610390610f17565b60405161039d9190614885565b60405180910390f35b3480156103b257600080fd5b506103cd60048036038101906103c89190613f4d565b610f50565b6040516103da9190614863565b60405180910390f35b3480156103ef57600080fd5b506103f8610f81565b6040516104059190614be9565b60405180910390f35b34801561041a57600080fd5b50610423610f92565b60405161043091906147be565b60405180910390f35b34801561044557600080fd5b50610460600480360381019061045b9190613b16565b610f9c565b005b34801561046e57600080fd5b5061048960048036038101906104849190613e19565b610ffc565b60405161049691906147be565b60405180910390f35b3480156104ab57600080fd5b506104c660048036038101906104c19190613ab1565b61101c565b6040516104d39190614be9565b60405180910390f35b3480156104e857600080fd5b5061050360048036038101906104fe9190613f4d565b611065565b005b34801561051157600080fd5b5061052c60048036038101906105279190613e42565b61111a565b005b34801561053a57600080fd5b5061055560048036038101906105509190613d57565b61118e565b6040516105629190614be9565b60405180910390f35b34801561057757600080fd5b506105806111e9565b60405161058d9190614be9565b60405180910390f35b3480156105a257600080fd5b506105bd60048036038101906105b89190613e42565b6111f6565b005b3480156105cb57600080fd5b506105e660048036038101906105e19190613d57565b611279565b005b3480156105f457600080fd5b5061060f600480360381019061060a9190613b16565b611342565b005b34801561061d57600080fd5b5061063860048036038101906106339190613f4d565b611362565b6040516106459190614be9565b60405180910390f35b34801561065a57600080fd5b5061067560048036038101906106709190613f4d565b611385565b60405161068291906146b1565b60405180910390f35b34801561069757600080fd5b506106a06113bc565b6040516106ad9190614885565b60405180910390f35b3480156106c257600080fd5b506106dd60048036038101906106d89190613ab1565b61144e565b6040516106ea9190614be9565b60405180910390f35b3480156106ff57600080fd5b5061071a60048036038101906107159190613e7e565b61150d565b60405161072791906146b1565b60405180910390f35b34801561073c57600080fd5b5061075760048036038101906107529190613e42565b61153f565b60405161076491906147a3565b60405180910390f35b34801561077957600080fd5b50610782611571565b60405161078f9190614be9565b60405180910390f35b3480156107a457600080fd5b506107ad611576565b6040516107ba9190614885565b60405180910390f35b3480156107cf57600080fd5b506107ea60048036038101906107e59190613d93565b611608565b005b3480156107f857600080fd5b506108016117e9565b60405161080e91906147be565b60405180910390f35b34801561082357600080fd5b5061083e60048036038101906108399190613be0565b6117f0565b005b34801561084c57600080fd5b50610855611971565b60405161086291906147be565b60405180910390f35b34801561087757600080fd5b50610892600480360381019061088d9190613f4d565b611995565b005b3480156108a057600080fd5b506108bb60048036038101906108b69190613b65565b611b46565b005b3480156108c957600080fd5b506108e460048036038101906108df9190613f4d565b611ba8565b6040516108f19190614885565b60405180910390f35b34801561090657600080fd5b50610921600480360381019061091c9190613e19565b611d1b565b60405161092e9190614be9565b60405180910390f35b34801561094357600080fd5b5061095e60048036038101906109599190613c1c565b611d42565b005b34801561096c57600080fd5b5061098760048036038101906109829190613d03565b611f0a565b005b34801561099557600080fd5b506109b060048036038101906109ab9190613e42565b611f74565b005b3480156109be57600080fd5b506109d960048036038101906109d49190613ada565b611fe8565b6040516109e691906147a3565b60405180910390f35b6000806000837bffffffffffffffffffffffffffffffffffffffffffffffffffffffff19167bffffffffffffffffffffffffffffffffffffffffffffffffffffffff1916815260200190815260200160002060009054906101000a900460ff169050919050565b606060018054610a6590614eef565b80601f0160208091040260200160405190810160405280929190818152602001828054610a9190614eef565b8015610ade5780601f10610ab357610100808354040283529160200191610ade565b820191906000526020600020905b815481529060010190602001808311610ac157829003601f168201915b5050505050905090565b60126020528060005260406000206000915054906101000a900460ff1681565b6000610b138261215d565b610b52576040517f08c379a0000000000000000000000000000000000000000000000000000000008152600401610b4990614ac9565b60405180910390fd5b6007600083815260200190815260200160002060009054906101000a900473ffffffffffffffffffffffffffffffffffffffff169050919050565b6000610b9882611385565b90508073ffffffffffffffffffffffffffffffffffffffff168373ffffffffffffffffffffffffffffffffffffffff161415610c09576040517f08c379a0000000000000000000000000000000000000000000000000000000008152600401610c0090614b69565b60405180910390fd5b8073ffffffffffffffffffffffffffffffffffffffff16610c2861217a565b73ffffffffffffffffffffffffffffffffffffffff161480610c575750610c5681610c5161217a565b611fe8565b5b610c96576040517f08c379a0000000000000000000000000000000000000000000000000000000008152600401610c8d90614a29565b60405180910390fd5b610ca08383612189565b505050565b606060006040518060600160405280600f60008a73ffffffffffffffffffffffffffffffffffffffff1673ffffffffffffffffffffffffffffffffffffffff1681526020019081526020016000205481526020018873ffffffffffffffffffffffffffffffffffffffff168152602001878152509050610d288782878787612242565b610d67576040517f08c379a0000000000000000000000000000000000000000000000000000000008152600401610d5e90614b29565b60405180910390fd5b610dba6001600f60008a73ffffffffffffffffffffffffffffffffffffffff1673ffffffffffffffffffffffffffffffffffffffff1681526020019081526020016000205461234b90919063ffffffff16565b600f60008973ffffffffffffffffffffffffffffffffffffffff1673ffffffffffffffffffffffffffffffffffffffff168152602001908152602001600020819055507f5845892132946850460bff5a0083f71031bc5bf9aadcd40f1de79423eac9b10b873388604051610e3093929190614718565b60405180910390a16000803073ffffffffffffffffffffffffffffffffffffffff16888a604051602001610e65929190614608565b604051602081830303815290604052604051610e8191906145f1565b6000604051808303816000865af19150503d8060008114610ebe576040519150601f19603f3d011682016040523d82523d6000602084013e610ec3565b606091505b509150915081610f08576040517f08c379a0000000000000000000000000000000000000000000000000000000008152600401610eff90614929565b60405180910390fd5b80935050505095945050505050565b6040518060400160405280600181526020017f310000000000000000000000000000000000000000000000000000000000000081525081565b6060610f5b82611ba8565b604051602001610f6b9190614885565b6040516020818303038152906040529050919050565b6000610f8d60046123a9565b905090565b6000600e54905090565b610fad610fa761217a565b826123be565b610fec576040517f08c379a0000000000000000000000000000000000000000000000000000000008152600401610fe390614b89565b60405180910390fd5b610ff783838361249c565b505050565b6000600b6000838152602001908152602001600020600201549050919050565b6000600f60008373ffffffffffffffffffffffffffffffffffffffff1673ffffffffffffffffffffffffffffffffffffffff168152602001908152602001600020549050919050565b61106e81611385565b73ffffffffffffffffffffffffffffffffffffffff1661108c61217a565b73ffffffffffffffffffffffffffffffffffffffff16146110e2576040517f08c379a00000000000000000000000000000000000000000000000000000000081526004016110d990614a49565b60405180910390fd5b60016012600083815260200190815260200160002060006101000a81548160ff021916908315150217905550611117816126b3565b50565b611141600b60008481526020019081526020016000206002015461113c61217a565b61153f565b611180576040517f08c379a0000000000000000000000000000000000000000000000000000000008152600401611177906148c9565b60405180910390fd5b61118a82826127e5565b5050565b60006111e182600360008673ffffffffffffffffffffffffffffffffffffffff1673ffffffffffffffffffffffffffffffffffffffff16815260200190815260200160002061287990919063ffffffff16565b905092915050565b6000804690508091505090565b6111fe61217a565b73ffffffffffffffffffffffffffffffffffffffff168173ffffffffffffffffffffffffffffffffffffffff161461126b576040517f08c379a000000000000000000000000000000000000000000000000000000000815260040161126290614bc9565b60405180910390fd5b6112758282612893565b5050565b6000801b61128e8161128961217a565b61153f565b600c906112d1576040517f08c379a00000000000000000000000000000000000000000000000000000000081526004016112c891906148a7565b60405180910390fd5b506012600083815260200190815260200160002060009054906101000a900460ff1615611333576040517f08c379a000000000000000000000000000000000000000000000000000000000815260040161132a90614909565b60405180910390fd5b61133d8383612927565b505050565b61135d83838360405180602001604052806000815250611b46565b505050565b600080611379836004612ab590919063ffffffff16565b50905080915050919050565b60006113b582604051806060016040528060298152602001615929602991396004612ae19092919063ffffffff16565b9050919050565b6060600a80546113cb90614eef565b80601f01602080910402602001604051908101604052809291908181526020018280546113f790614eef565b80156114445780601f1061141957610100808354040283529160200191611444565b820191906000526020600020905b81548152906001019060200180831161142757829003601f168201915b5050505050905090565b60008073ffffffffffffffffffffffffffffffffffffffff168273ffffffffffffffffffffffffffffffffffffffff1614156114bf576040517f08c379a00000000000000000000000000000000000000000000000000000000081526004016114b690614a69565b60405180910390fd5b611506600360008473ffffffffffffffffffffffffffffffffffffffff1673ffffffffffffffffffffffffffffffffffffffff168152602001908152602001600020612b00565b9050919050565b600061153782600b6000868152602001908152602001600020600001612b1590919063ffffffff16565b905092915050565b600061156982600b6000868152602001908152602001600020600001612b2f90919063ffffffff16565b905092915050565b601481565b60606002805461158590614eef565b80601f01602080910402602001604051908101604052809291908181526020018280546115b190614eef565b80156115fe5780601f106115d3576101008083540402835291602001916115fe565b820191906000526020600020905b8154815290600101906020018083116115e157829003601f168201915b5050505050905090565b60008282905090506014811115611654576040517f08c379a000000000000000000000000000000000000000000000000000000000815260040161164b90614a89565b60405180910390fd5b60005b8181101561178c57600084848381811061169a577f4e487b7100000000000000000000000000000000000000000000000000000000600052603260045260246000fd5b9050602002013590506116ac81611385565b73ffffffffffffffffffffffffffffffffffffffff166116ca61217a565b73ffffffffffffffffffffffffffffffffffffffff1614816040516020016116f2919061468b565b60405160208183030381529060405290611742576040517f08c379a00000000000000000000000000000000000000000000000000000000081526004016117399190614885565b60405180910390fd5b5060016012600083815260200190815260200160002060006101000a81548160ff021916908315150217905550611778816126b3565b50808061178490614f52565b915050611657565b5061179561217a565b73ffffffffffffffffffffffffffffffffffffffff167ff871896b17e9cb7a64941c62c188a4f5c621b86800e3d15452ece01ce56073df84846040516117dc92919061477f565b60405180910390a2505050565b6000801b81565b6117f861217a565b73ffffffffffffffffffffffffffffffffffffffff168273ffffffffffffffffffffffffffffffffffffffff161415611866576040517f08c379a000000000000000000000000000000000000000000000000000000000815260040161185d906149a9565b60405180910390fd5b806008600061187361217a565b73ffffffffffffffffffffffffffffffffffffffff1673ffffffffffffffffffffffffffffffffffffffff16815260200190815260200160002060008473ffffffffffffffffffffffffffffffffffffffff1673ffffffffffffffffffffffffffffffffffffffff16815260200190815260200160002060006101000a81548160ff0219169083151502179055508173ffffffffffffffffffffffffffffffffffffffff1661192061217a565b73ffffffffffffffffffffffffffffffffffffffff167f17307eab39ab6107e8899845ad3d59bd9653f200f220920489ca2b5937696c318360405161196591906147a3565b60405180910390a35050565b7f8f4f2da22e8ac8f11e15f9fc141cddbb5deea8800186560abb6e68c5496619a981565b61199e81611385565b73ffffffffffffffffffffffffffffffffffffffff166119bc61217a565b73ffffffffffffffffffffffffffffffffffffffff1614611a12576040517f08c379a0000000000000000000000000000000000000000000000000000000008152600401611a0990614a49565b60405180910390fd5b60016012600083815260200190815260200160002060006101000a81548160ff02191690831515021790555080600073ffffffffffffffffffffffffffffffffffffffff16611a6083611385565b73ffffffffffffffffffffffffffffffffffffffff167ff94915c6d1fd521cee85359239227480c7e8776d7caf1fc3bacad5c269b66a143073ffffffffffffffffffffffffffffffffffffffff16631653c39a866040518263ffffffff1660e01b8152600401611ad09190614be9565b60006040518083038186803b158015611ae857600080fd5b505afa158015611afc573d6000803e3d6000fd5b505050506040513d6000823e3d601f19601f82011682018060405250810190611b259190613f0c565b604051611b329190614863565b60405180910390a4611b43816126b3565b50565b611b57611b5161217a565b836123be565b611b96576040517f08c379a0000000000000000000000000000000000000000000000000000000008152600401611b8d90614b89565b60405180910390fd5b611ba284848484612b5f565b50505050565b6060611bb38261215d565b611bf2576040517f08c379a0000000000000000000000000000000000000000000000000000000008152600401611be990614b49565b60405180910390fd5b6000600960008481526020019081526020016000208054611c1290614eef565b80601f0160208091040260200160405190810160405280929190818152602001828054611c3e90614eef565b8015611c8b5780601f10611c6057610100808354040283529160200191611c8b565b820191906000526020600020905b815481529060010190602001808311611c6e57829003601f168201915b505050505090506000600a8054611ca190614eef565b90501415611cb25780915050611d16565b600081511115611ce757600a81604051602001611cd0929190614630565b604051602081830303815290604052915050611d16565b600a611cf284612bbb565b604051602001611d03929190614630565b6040516020818303038152906040529150505b919050565b6000611d3b600b6000848152602001908152602001600020600001612d7a565b9050919050565b7f8f4f2da22e8ac8f11e15f9fc141cddbb5deea8800186560abb6e68c5496619a9611d7481611d6f61217a565b61153f565b600c90611db7576040517f08c379a0000000000000000000000000000000000000000000000000000000008152600401611dae91906148a7565b60405180910390fd5b506020838390501415611e135760008383810190611dd59190613f4d565b905060006012600083815260200190815260200160002060006101000a81548160ff021916908315150217905550611e0d8582612927565b50611f04565b60008383810190611e249190613dd8565b905060008151905060005b81811015611f0057600060126000858481518110611e76577f4e487b7100000000000000000000000000000000000000000000000000000000600052603260045260246000fd5b6020026020010151815260200190815260200160002060006101000a81548160ff021916908315150217905550611eed87848381518110611ee0577f4e487b7100000000000000000000000000000000000000000000000000000000600052603260045260246000fd5b6020026020010151612927565b8080611ef890614f52565b915050611e2f565b5050505b50505050565b611f146010612d8f565b6000611f206010612da5565b9050611f2c8382612927565b611f368183612db3565b7fb9144c96c86541f6fa89c9f2f02495cccf4b08cd6643e26d34ee00aa586558a88382604051611f67929190614756565b60405180910390a1505050565b611f9b600b600084815260200190815260200160002060020154611f9661217a565b61153f565b611fda576040517f08c379a0000000000000000000000000000000000000000000000000000000008152600401611fd1906149e9565b60405180910390fd5b611fe48282612893565b5050565b6000600860008473ffffffffffffffffffffffffffffffffffffffff1673ffffffffffffffffffffffffffffffffffffffff16815260200190815260200160002060008373ffffffffffffffffffffffffffffffffffffffff1673ffffffffffffffffffffffffffffffffffffffff16815260200190815260200160002060009054906101000a900460ff16905092915050565b60003073ffffffffffffffffffffffffffffffffffffffff163373ffffffffffffffffffffffffffffffffffffffff16141561212657600080368080601f016020809104026020016040519081016040528093929190818152602001838380828437600081840152601f19601f820116905080830192505050505050509050600080369050905073ffffffffffffffffffffffffffffffffffffffff81830151169250505061212a565b3390505b90565b6000612155836000018373ffffffffffffffffffffffffffffffffffffffff1660001b612e27565b905092915050565b6000612173826004612e9790919063ffffffff16565b9050919050565b600061218461207c565b905090565b816007600083815260200190815260200160002060006101000a81548173ffffffffffffffffffffffffffffffffffffffff021916908373ffffffffffffffffffffffffffffffffffffffff160217905550808273ffffffffffffffffffffffffffffffffffffffff166121fc83611385565b73ffffffffffffffffffffffffffffffffffffffff167f8c5be1e5ebec7d5bd14f71427d1e84f3dd0314c0f7b2291e5b200ac8c7c3b92560405160405180910390a45050565b60008073ffffffffffffffffffffffffffffffffffffffff168673ffffffffffffffffffffffffffffffffffffffff1614156122b3576040517f08c379a00000000000000000000000000000000000000000000000000000000081526004016122aa90614a09565b60405180910390fd5b60016122c66122c187612eb1565b612f19565b838686604051600081526020016040526040516122e6949392919061481e565b6020604051602081039080840390855afa158015612308573d6000803e3d6000fd5b5050506020604051035173ffffffffffffffffffffffffffffffffffffffff168673ffffffffffffffffffffffffffffffffffffffff1614905095945050505050565b600080828461235a9190614d2b565b90508381101561239f576040517f08c379a000000000000000000000000000000000000000000000000000000000815260040161239690614969565b60405180910390fd5b8091505092915050565b60006123b782600001612f52565b9050919050565b60006123c98261215d565b612408576040517f08c379a00000000000000000000000000000000000000000000000000000000081526004016123ff906149c9565b60405180910390fd5b600061241383611385565b90508073ffffffffffffffffffffffffffffffffffffffff168473ffffffffffffffffffffffffffffffffffffffff16148061248257508373ffffffffffffffffffffffffffffffffffffffff1661246a84610b08565b73ffffffffffffffffffffffffffffffffffffffff16145b8061249357506124928185611fe8565b5b91505092915050565b8273ffffffffffffffffffffffffffffffffffffffff166124bc82611385565b73ffffffffffffffffffffffffffffffffffffffff1614612512576040517f08c379a000000000000000000000000000000000000000000000000000000000815260040161250990614b09565b60405180910390fd5b600073ffffffffffffffffffffffffffffffffffffffff168273ffffffffffffffffffffffffffffffffffffffff161415612582576040517f08c379a000000000000000000000000000000000000000000000000000000000815260040161257990614989565b60405180910390fd5b61258d838383612f67565b612598600082612189565b6125e981600360008673ffffffffffffffffffffffffffffffffffffffff1673ffffffffffffffffffffffffffffffffffffffff168152602001908152602001600020612f6c90919063ffffffff16565b5061263b81600360008573ffffffffffffffffffffffffffffffffffffffff1673ffffffffffffffffffffffffffffffffffffffff168152602001908152602001600020612f8690919063ffffffff16565b5061265281836004612fa09092919063ffffffff16565b50808273ffffffffffffffffffffffffffffffffffffffff168473ffffffffffffffffffffffffffffffffffffffff167fddf252ad1be2c89b69c2b068fc378daa952ba7f163c4a11628f55a4df523b3ef60405160405180910390a4505050565b60006126be82611385565b90506126cc81600084612f67565b6126d7600083612189565b60006009600084815260200190815260200160002080546126f790614eef565b90501461271e5760096000838152602001908152602001600020600061271d91906136d9565b5b61276f82600360008473ffffffffffffffffffffffffffffffffffffffff1673ffffffffffffffffffffffffffffffffffffffff168152602001908152602001600020612f6c90919063ffffffff16565b50612784826004612fd590919063ffffffff16565b5081600073ffffffffffffffffffffffffffffffffffffffff168273ffffffffffffffffffffffffffffffffffffffff167fddf252ad1be2c89b69c2b068fc378daa952ba7f163c4a11628f55a4df523b3ef60405160405180910390a45050565b61280d81600b600085815260200190815260200160002060000161212d90919063ffffffff16565b156128755761281a61217a565b73ffffffffffffffffffffffffffffffffffffffff168173ffffffffffffffffffffffffffffffffffffffff16837f2f8788117e7eff1d82e926ec794901d17c78024a50270940304540a733656f0d60405160405180910390a45b5050565b60006128888360000183612fef565b60001c905092915050565b6128bb81600b600085815260200190815260200160002060000161304090919063ffffffff16565b15612923576128c861217a565b73ffffffffffffffffffffffffffffffffffffffff168173ffffffffffffffffffffffffffffffffffffffff16837ff6391f5c32d9c69d2a47ea670b442974b53935d1edc7fd64eb21e047a839171b60405160405180910390a45b5050565b600073ffffffffffffffffffffffffffffffffffffffff168273ffffffffffffffffffffffffffffffffffffffff161415612997576040517f08c379a000000000000000000000000000000000000000000000000000000000815260040161298e90614aa9565b60405180910390fd5b6129a08161215d565b156129e0576040517f08c379a00000000000000000000000000000000000000000000000000000000081526004016129d790614949565b60405180910390fd5b6129ec60008383612f67565b612a3d81600360008573ffffffffffffffffffffffffffffffffffffffff1673ffffffffffffffffffffffffffffffffffffffff168152602001908152602001600020612f8690919063ffffffff16565b50612a5481836004612fa09092919063ffffffff16565b50808273ffffffffffffffffffffffffffffffffffffffff16600073ffffffffffffffffffffffffffffffffffffffff167fddf252ad1be2c89b69c2b068fc378daa952ba7f163c4a11628f55a4df523b3ef60405160405180910390a45050565b600080600080612ac88660000186613070565b915091508160001c8160001c9350935050509250929050565b6000612af4846000018460001b846130b0565b60001c90509392505050565b6000612b0e82600001613131565b9050919050565b6000612b248360000183612fef565b60001c905092915050565b6000612b57836000018373ffffffffffffffffffffffffffffffffffffffff1660001b613142565b905092915050565b612b6a84848461249c565b612b7684848484613165565b612bb5576040517f08c379a0000000000000000000000000000000000000000000000000000000008152600401612bac906148e9565b60405180910390fd5b50505050565b60606000821415612c03576040518060400160405280600181526020017f30000000000000000000000000000000000000000000000000000000000000008152509050612d75565b600082905060005b60008214612c35578080612c1e90614f52565b915050600a82612c2e9190614d81565b9150612c0b565b60008167ffffffffffffffff811115612c77577f4e487b7100000000000000000000000000000000000000000000000000000000600052604160045260246000fd5b6040519080825280601f01601f191660200182016040528015612ca95781602001600182028036833780820191505090505b5090506000600183612cbb9190614db2565b90508593505b60008414612d6d57600a84612cd69190614fd3565b6030612ce29190614d2b565b60f81b828280612cf190614ec5565b935081518110612d2a577f4e487b7100000000000000000000000000000000000000000000000000000000600052603260045260246000fd5b60200101907effffffffffffffffffffffffffffffffffffffffffffffffffffffffffffff1916908160001a905350600a84612d669190614d81565b9350612cc1565b819450505050505b919050565b6000612d8882600001613131565b9050919050565b6001816000016000828254019250508190555050565b600081600001549050919050565b612dbc8261215d565b612dfb576040517f08c379a0000000000000000000000000000000000000000000000000000000008152600401612df290614ae9565b60405180910390fd5b80600960008481526020019081526020016000209080519060200190612e22929190613719565b505050565b6000612e338383613142565b612e8c578260000182908060018154018082558091505060019003906000526020600020016000909190919091505582600001805490508360010160008481526020019081526020016000208190555060019050612e91565b600090505b92915050565b6000612ea9836000018360001b6132c9565b905092915050565b60006040518060800160405280604381526020016158e6604391398051906020012082600001518360200151846040015180519060200120604051602001612efc94939291906147d9565b604051602081830303815290604052805190602001209050919050565b6000612f23610f92565b82604051602001612f35929190614654565b604051602081830303815290604052805190602001209050919050565b6000612f60826000016132e9565b9050919050565b505050565b6000612f7e836000018360001b6132fe565b905092915050565b6000612f98836000018360001b612e27565b905092915050565b6000612fcc846000018460001b8473ffffffffffffffffffffffffffffffffffffffff1660001b613484565b90509392505050565b6000612fe7836000018360001b6134bf565b905092915050565b600082600001828154811061302d577f4e487b7100000000000000000000000000000000000000000000000000000000600052603260045260246000fd5b9060005260206000200154905092915050565b6000613068836000018373ffffffffffffffffffffffffffffffffffffffff1660001b6132fe565b905092915050565b600080600061308b84866000016134f890919063ffffffff16565b9050808560020160008381526020019081526020016000205492509250509250929050565b6000808460020160008581526020019081526020016000205490506000801b811415806130e357506130e285856132c9565b5b8390613125576040517f08c379a000000000000000000000000000000000000000000000000000000000815260040161311c9190614885565b60405180910390fd5b50809150509392505050565b600081600001805490509050919050565b600080836001016000848152602001908152602001600020541415905092915050565b60006131868473ffffffffffffffffffffffffffffffffffffffff1661350f565b61319357600190506132c1565b600061325a63150b7a0260e01b6131a861217a565b8887876040516024016131be94939291906146cc565b604051602081830303815290604052907bffffffffffffffffffffffffffffffffffffffffffffffffffffffff19166020820180517bffffffffffffffffffffffffffffffffffffffffffffffffffffffff83818316178352505050506040518060600160405280603281526020016158b4603291398773ffffffffffffffffffffffffffffffffffffffff1661355a9092919063ffffffff16565b90506000818060200190518101906132729190613ee3565b905063150b7a0260e01b7bffffffffffffffffffffffffffffffffffffffffffffffffffffffff1916817bffffffffffffffffffffffffffffffffffffffffffffffffffffffff191614925050505b949350505050565b60006132e1828460000161357290919063ffffffff16565b905092915050565b60006132f782600001613131565b9050919050565b600080836001016000848152602001908152602001600020549050600081146134785760006001826133309190614db2565b90506000600186600001805490506133489190614db2565b905081811461340357600086600001828154811061338f577f4e487b7100000000000000000000000000000000000000000000000000000000600052603260045260246000fd5b90600052602060002001549050808760000184815481106133d9577f4e487b7100000000000000000000000000000000000000000000000000000000600052603260045260246000fd5b90600052602060002001819055508387600101600083815260200190815260200160002081905550505b8560000180548061343d577f4e487b7100000000000000000000000000000000000000000000000000000000600052603160045260246000fd5b60019003818190600052602060002001600090559055856001016000868152602001908152602001600020600090556001935050505061347e565b60009150505b92915050565b600081846002016000858152602001908152602001600020819055506134b6838560000161358990919063ffffffff16565b90509392505050565b6000826002016000838152602001908152602001600020600090556134f082846000016135a090919063ffffffff16565b905092915050565b60006135078360000183612fef565b905092915050565b60008060007fc5d2460186f7233c927e7db2dcc703c0e500b653ca82273b7bfad8045d85a47060001b9050833f915080821415801561355157506000801b8214155b92505050919050565b606061356984846000856135b7565b90509392505050565b60006135818360000183613142565b905092915050565b60006135988360000183612e27565b905092915050565b60006135af83600001836132fe565b905092915050565b60606135c28561350f565b613601576040517f08c379a00000000000000000000000000000000000000000000000000000000081526004016135f890614ba9565b60405180910390fd5b6000808673ffffffffffffffffffffffffffffffffffffffff16858760405161362a91906145f1565b60006040518083038185875af1925050503d8060008114613667576040519150601f19603f3d011682016040523d82523d6000602084013e61366c565b606091505b509150915081156136815780925050506136d1565b6000815111156136945780518082602001fd5b836040517f08c379a00000000000000000000000000000000000000000000000000000000081526004016136c89190614885565b60405180910390fd5b949350505050565b5080546136e590614eef565b6000825580601f106136f75750613716565b601f016020900490600052602060002090810190613715919061379f565b5b50565b82805461372590614eef565b90600052602060002090601f016020900481019282613747576000855561378e565b82601f1061376057805160ff191683800117855561378e565b8280016001018555821561378e579182015b8281111561378d578251825591602001919060010190613772565b5b50905061379b919061379f565b5090565b5b808211156137b85760008160009055506001016137a0565b5090565b60006137cf6137ca84614c29565b614c04565b905080838252602082019050828560208602820111156137ee57600080fd5b60005b8581101561381e57816138048882613a87565b8452602084019350602083019250506001810190506137f1565b5050509392505050565b600061383b61383684614c55565b614c04565b90508281526020810184848401111561385357600080fd5b61385e848285614e83565b509392505050565b600061387961387484614c55565b614c04565b90508281526020810184848401111561389157600080fd5b61389c848285614e92565b509392505050565b60006138b76138b284614c86565b614c04565b9050828152602081018484840111156138cf57600080fd5b6138da848285614e83565b509392505050565b6000813590506138f181615829565b92915050565b60008083601f84011261390957600080fd5b8235905067ffffffffffffffff81111561392257600080fd5b60208301915083602082028301111561393a57600080fd5b9250929050565b600082601f83011261395257600080fd5b81356139628482602086016137bc565b91505092915050565b60008135905061397a81615840565b92915050565b60008135905061398f81615857565b92915050565b6000813590506139a48161586e565b92915050565b6000815190506139b98161586e565b92915050565b60008083601f8401126139d157600080fd5b8235905067ffffffffffffffff8111156139ea57600080fd5b602083019150836001820283011115613a0257600080fd5b9250929050565b600082601f830112613a1a57600080fd5b8135613a2a848260208601613828565b91505092915050565b600082601f830112613a4457600080fd5b8151613a54848260208601613866565b91505092915050565b600082601f830112613a6e57600080fd5b8135613a7e8482602086016138a4565b91505092915050565b600081359050613a9681615885565b92915050565b600081359050613aab8161589c565b92915050565b600060208284031215613ac357600080fd5b6000613ad1848285016138e2565b91505092915050565b60008060408385031215613aed57600080fd5b6000613afb858286016138e2565b9250506020613b0c858286016138e2565b9150509250929050565b600080600060608486031215613b2b57600080fd5b6000613b39868287016138e2565b9350506020613b4a868287016138e2565b9250506040613b5b86828701613a87565b9150509250925092565b60008060008060808587031215613b7b57600080fd5b6000613b89878288016138e2565b9450506020613b9a878288016138e2565b9350506040613bab87828801613a87565b925050606085013567ffffffffffffffff811115613bc857600080fd5b613bd487828801613a09565b91505092959194509250565b60008060408385031215613bf357600080fd5b6000613c01858286016138e2565b9250506020613c128582860161396b565b9150509250929050565b600080600060408486031215613c3157600080fd5b6000613c3f868287016138e2565b935050602084013567ffffffffffffffff811115613c5c57600080fd5b613c68868287016139bf565b92509250509250925092565b600080600080600060a08688031215613c8c57600080fd5b6000613c9a888289016138e2565b955050602086013567ffffffffffffffff811115613cb757600080fd5b613cc388828901613a09565b9450506040613cd488828901613980565b9350506060613ce588828901613980565b9250506080613cf688828901613a9c565b9150509295509295909350565b60008060408385031215613d1657600080fd5b6000613d24858286016138e2565b925050602083013567ffffffffffffffff811115613d4157600080fd5b613d4d85828601613a5d565b9150509250929050565b60008060408385031215613d6a57600080fd5b6000613d78858286016138e2565b9250506020613d8985828601613a87565b9150509250929050565b60008060208385031215613da657600080fd5b600083013567ffffffffffffffff811115613dc057600080fd5b613dcc858286016138f7565b92509250509250929050565b600060208284031215613dea57600080fd5b600082013567ffffffffffffffff811115613e0457600080fd5b613e1084828501613941565b91505092915050565b600060208284031215613e2b57600080fd5b6000613e3984828501613980565b91505092915050565b60008060408385031215613e5557600080fd5b6000613e6385828601613980565b9250506020613e74858286016138e2565b9150509250929050565b60008060408385031215613e9157600080fd5b6000613e9f85828601613980565b9250506020613eb085828601613a87565b9150509250929050565b600060208284031215613ecc57600080fd5b6000613eda84828501613995565b91505092915050565b600060208284031215613ef557600080fd5b6000613f03848285016139aa565b91505092915050565b600060208284031215613f1e57600080fd5b600082015167ffffffffffffffff811115613f3857600080fd5b613f4484828501613a33565b91505092915050565b600060208284031215613f5f57600080fd5b6000613f6d84828501613a87565b91505092915050565b613f7f81614df8565b82525050565b613f8e81614de6565b82525050565b613fa5613fa082614de6565b614f9b565b82525050565b6000613fb78385614ce2565b93507f07ffffffffffffffffffffffffffffffffffffffffffffffffffffffffffffff831115613fe657600080fd5b602083029250613ff7838584614e83565b82840190509392505050565b61400c81614e0a565b82525050565b61401b81614e16565b82525050565b61403261402d82614e16565b614fad565b82525050565b600061404382614ccc565b61404d8185614cf3565b935061405d818560208601614e92565b614066816150c0565b840191505092915050565b600061407c82614ccc565b6140868185614d04565b9350614096818560208601614e92565b80840191505092915050565b60006140ad82614cd7565b6140b78185614d0f565b93506140c7818560208601614e92565b6140d0816150c0565b840191505092915050565b60006140e682614cd7565b6140f08185614d20565b9350614100818560208601614e92565b80840191505092915050565b6000815461411981614eef565b6141238186614d0f565b9450600182166000811461413e576001811461415057614183565b60ff1983168652602086019350614183565b61415985614cb7565b60005b8381101561417b5781548189015260018201915060208101905061415c565b808801955050505b50505092915050565b6000815461419981614eef565b6141a38186614d20565b945060018216600081146141be57600181146141cf57614202565b60ff19831686528186019350614202565b6141d885614cb7565b60005b838110156141fa578154818901526001820191506020810190506141db565b838801955050505b50505092915050565b6000614218602f83614d0f565b9150614223826150de565b604082019050919050565b600061423b603283614d0f565b91506142468261512d565b604082019050919050565b600061425e602f83614d0f565b91506142698261517c565b604082019050919050565b6000614281601c83614d0f565b915061428c826151cb565b602082019050919050565b60006142a4601c83614d0f565b91506142af826151f4565b602082019050919050565b60006142c7600283614d20565b91506142d28261521d565b600282019050919050565b60006142ea601b83614d0f565b91506142f582615246565b602082019050919050565b600061430d602983614d20565b91506143188261526f565b602982019050919050565b6000614330602483614d0f565b915061433b826152be565b604082019050919050565b6000614353601983614d0f565b915061435e8261530d565b602082019050919050565b6000614376602c83614d0f565b915061438182615336565b604082019050919050565b6000614399603083614d0f565b91506143a482615385565b604082019050919050565b60006143bc602583614d0f565b91506143c7826153d4565b604082019050919050565b60006143df603883614d0f565b91506143ea82615423565b604082019050919050565b6000614402602883614d0f565b915061440d82615472565b604082019050919050565b6000614425602a83614d0f565b9150614430826154c1565b604082019050919050565b6000614448602883614d0f565b915061445382615510565b604082019050919050565b600061446b602083614d0f565b91506144768261555f565b602082019050919050565b600061448e602c83614d0f565b915061449982615588565b604082019050919050565b60006144b1602c83614d0f565b91506144bc826155d7565b604082019050919050565b60006144d4602983614d0f565b91506144df82615626565b604082019050919050565b60006144f7602183614d0f565b915061450282615675565b604082019050919050565b600061451a602f83614d0f565b9150614525826156c4565b604082019050919050565b600061453d602183614d0f565b915061454882615713565b604082019050919050565b6000614560603183614d0f565b915061456b82615762565b604082019050919050565b6000614583601d83614d0f565b915061458e826157b1565b602082019050919050565b60006145a6602f83614d0f565b91506145b1826157da565b604082019050919050565b6145c581614e6c565b82525050565b6145dc6145d782614e6c565b614fc9565b82525050565b6145eb81614e76565b82525050565b60006145fd8284614071565b915081905092915050565b60006146148285614071565b91506146208284613f94565b6014820191508190509392505050565b600061463c828561418c565b915061464882846140db565b91508190509392505050565b600061465f826142ba565b915061466b8285614021565b60208201915061467b8284614021565b6020820191508190509392505050565b600061469682614300565b91506146a282846145cb565b60208201915081905092915050565b60006020820190506146c66000830184613f85565b92915050565b60006080820190506146e16000830187613f76565b6146ee6020830186613f85565b6146fb60408301856145bc565b818103606083015261470d8184614038565b905095945050505050565b600060608201905061472d6000830186613f85565b61473a6020830185613f76565b818103604083015261474c8184614038565b9050949350505050565b600060408201905061476b6000830185613f85565b61477860208301846145bc565b9392505050565b6000602082019050818103600083015261479a818486613fab565b90509392505050565b60006020820190506147b86000830184614003565b92915050565b60006020820190506147d36000830184614012565b92915050565b60006080820190506147ee6000830187614012565b6147fb60208301866145bc565b6148086040830185613f85565b6148156060830184614012565b95945050505050565b60006080820190506148336000830187614012565b61484060208301866145e2565b61484d6040830185614012565b61485a6060830184614012565b95945050505050565b6000602082019050818103600083015261487d8184614038565b905092915050565b6000602082019050818103600083015261489f81846140a2565b905092915050565b600060208201905081810360008301526148c1818461410c565b905092915050565b600060208201905081810360008301526148e28161420b565b9050919050565b600060208201905081810360008301526149028161422e565b9050919050565b6000602082019050818103600083015261492281614251565b9050919050565b6000602082019050818103600083015261494281614274565b9050919050565b6000602082019050818103600083015261496281614297565b9050919050565b60006020820190508181036000830152614982816142dd565b9050919050565b600060208201905081810360008301526149a281614323565b9050919050565b600060208201905081810360008301526149c281614346565b9050919050565b600060208201905081810360008301526149e281614369565b9050919050565b60006020820190508181036000830152614a028161438c565b9050919050565b60006020820190508181036000830152614a22816143af565b9050919050565b60006020820190508181036000830152614a42816143d2565b9050919050565b60006020820190508181036000830152614a62816143f5565b9050919050565b60006020820190508181036000830152614a8281614418565b9050919050565b60006020820190508181036000830152614aa28161443b565b9050919050565b60006020820190508181036000830152614ac28161445e565b9050919050565b60006020820190508181036000830152614ae281614481565b9050919050565b60006020820190508181036000830152614b02816144a4565b9050919050565b60006020820190508181036000830152614b22816144c7565b9050919050565b60006020820190508181036000830152614b42816144ea565b9050919050565b60006020820190508181036000830152614b628161450d565b9050919050565b60006020820190508181036000830152614b8281614530565b9050919050565b60006020820190508181036000830152614ba281614553565b9050919050565b60006020820190508181036000830152614bc281614576565b9050919050565b60006020820190508181036000830152614be281614599565b9050919050565b6000602082019050614bfe60008301846145bc565b92915050565b6000614c0e614c1f565b9050614c1a8282614f21565b919050565b6000604051905090565b600067ffffffffffffffff821115614c4457614c43615091565b5b602082029050602081019050919050565b600067ffffffffffffffff821115614c7057614c6f615091565b5b614c79826150c0565b9050602081019050919050565b600067ffffffffffffffff821115614ca157614ca0615091565b5b614caa826150c0565b9050602081019050919050565b60008190508160005260206000209050919050565b600081519050919050565b600081519050919050565b600082825260208201905092915050565b600082825260208201905092915050565b600081905092915050565b600082825260208201905092915050565b600081905092915050565b6000614d3682614e6c565b9150614d4183614e6c565b9250827fffffffffffffffffffffffffffffffffffffffffffffffffffffffffffffffff03821115614d7657614d75615004565b5b828201905092915050565b6000614d8c82614e6c565b9150614d9783614e6c565b925082614da757614da6615033565b5b828204905092915050565b6000614dbd82614e6c565b9150614dc883614e6c565b925082821015614ddb57614dda615004565b5b828203905092915050565b6000614df182614e4c565b9050919050565b6000614e0382614e4c565b9050919050565b60008115159050919050565b6000819050919050565b60007fffffffff0000000000000000000000000000000000000000000000000000000082169050919050565b600073ffffffffffffffffffffffffffffffffffffffff82169050919050565b6000819050919050565b600060ff82169050919050565b82818337600083830152505050565b60005b83811015614eb0578082015181840152602081019050614e95565b83811115614ebf576000848401525b50505050565b6000614ed082614e6c565b91506000821415614ee457614ee3615004565b5b600182039050919050565b60006002820490506001821680614f0757607f821691505b60208210811415614f1b57614f1a615062565b5b50919050565b614f2a826150c0565b810181811067ffffffffffffffff82111715614f4957614f48615091565b5b80604052505050565b6000614f5d82614e6c565b91507fffffffffffffffffffffffffffffffffffffffffffffffffffffffffffffffff821415614f9057614f8f615004565b5b600182019050919050565b6000614fa682614fb7565b9050919050565b6000819050919050565b6000614fc2826150d1565b9050919050565b6000819050919050565b6000614fde82614e6c565b9150614fe983614e6c565b925082614ff957614ff8615033565b5b828206905092915050565b7f4e487b7100000000000000000000000000000000000000000000000000000000600052601160045260246000fd5b7f4e487b7100000000000000000000000000000000000000000000000000000000600052601260045260246000fd5b7f4e487b7100000000000000000000000000000000000000000000000000000000600052602260045260246000fd5b7f4e487b7100000000000000000000000000000000000000000000000000000000600052604160045260246000fd5b6000601f19601f8301169050919050565b60008160601b9050919050565b7f416363657373436f6e74726f6c3a2073656e646572206d75737420626520616e60008201527f2061646d696e20746f206772616e740000000000000000000000000000000000602082015250565b7f4552433732313a207472616e7366657220746f206e6f6e20455243373231526560008201527f63656976657220696d706c656d656e7465720000000000000000000000000000602082015250565b7f4368696c644d696e7461626c654552433732313a20544f4b454e5f455849535460008201527f535f4f4e5f524f4f545f434841494e0000000000000000000000000000000000602082015250565b7f46756e6374696f6e2063616c6c206e6f74207375636365737366756c00000000600082015250565b7f4552433732313a20746f6b656e20616c7265616479206d696e74656400000000600082015250565b7f1901000000000000000000000000000000000000000000000000000000000000600082015250565b7f536166654d6174683a206164646974696f6e206f766572666c6f770000000000600082015250565b7f4368696c644d696e7461626c654552433732313a20494e56414c49445f544f4b60008201527f454e5f4f574e4552200000000000000000000000000000000000000000000000602082015250565b7f4552433732313a207472616e7366657220746f20746865207a65726f2061646460008201527f7265737300000000000000000000000000000000000000000000000000000000602082015250565b7f4552433732313a20617070726f766520746f2063616c6c657200000000000000600082015250565b7f4552433732313a206f70657261746f7220717565727920666f72206e6f6e657860008201527f697374656e7420746f6b656e0000000000000000000000000000000000000000602082015250565b7f416363657373436f6e74726f6c3a2073656e646572206d75737420626520616e60008201527f2061646d696e20746f207265766f6b6500000000000000000000000000000000602082015250565b7f4e61746976654d6574615472616e73616374696f6e3a20494e56414c49445f5360008201527f49474e4552000000000000000000000000000000000000000000000000000000602082015250565b7f4552433732313a20617070726f76652063616c6c6572206973206e6f74206f7760008201527f6e6572206e6f7220617070726f76656420666f7220616c6c0000000000000000602082015250565b7f4368696c644d696e7461626c654552433732313a20494e56414c49445f544f4b60008201527f454e5f4f574e4552000000000000000000000000000000000000000000000000602082015250565b7f4552433732313a2062616c616e636520717565727920666f7220746865207a6560008201527f726f206164647265737300000000000000000000000000000000000000000000602082015250565b7f4368696c644d696e7461626c654552433732313a20455843454544535f42415460008201527f43485f4c494d4954000000000000000000000000000000000000000000000000602082015250565b7f4552433732313a206d696e7420746f20746865207a65726f2061646472657373600082015250565b7f4552433732313a20617070726f76656420717565727920666f72206e6f6e657860008201527f697374656e7420746f6b656e0000000000000000000000000000000000000000602082015250565b7f4552433732314d657461646174613a2055524920736574206f66206e6f6e657860008201527f697374656e7420746f6b656e0000000000000000000000000000000000000000602082015250565b7f4552433732313a207472616e73666572206f6620746f6b656e2074686174206960008201527f73206e6f74206f776e0000000000000000000000000000000000000000000000602082015250565b7f5369676e657220616e64207369676e617475726520646f206e6f74206d61746360008201527f6800000000000000000000000000000000000000000000000000000000000000602082015250565b7f4552433732314d657461646174613a2055524920717565727920666f72206e6f60008201527f6e6578697374656e7420746f6b656e0000000000000000000000000000000000602082015250565b7f4552433732313a20617070726f76616c20746f2063757272656e74206f776e6560008201527f7200000000000000000000000000000000000000000000000000000000000000602082015250565b7f4552433732313a207472616e736665722063616c6c6572206973206e6f74206f60008201527f776e6572206e6f7220617070726f766564000000000000000000000000000000602082015250565b7f416464726573733a2063616c6c20746f206e6f6e2d636f6e7472616374000000600082015250565b7f416363657373436f6e74726f6c3a2063616e206f6e6c792072656e6f756e636560008201527f20726f6c657320666f722073656c660000000000000000000000000000000000602082015250565b61583281614de6565b811461583d57600080fd5b50565b61584981614e0a565b811461585457600080fd5b50565b61586081614e16565b811461586b57600080fd5b50565b61587781614e20565b811461588257600080fd5b50565b61588e81614e6c565b811461589957600080fd5b50565b6158a581614e76565b81146158b057600080fd5b5056fe4552433732313a207472616e7366657220746f206e6f6e20455243373231526563656976657220696d706c656d656e7465724d6574615472616e73616374696f6e2875696e74323536206e6f6e63652c616464726573732066726f6d2c62797465732066756e6374696f6e5369676e6174757265294552433732313a206f776e657220717565727920666f72206e6f6e6578697374656e7420746f6b656ea26469706673582212208d6db40d066397a72e433b741b3a1a0cff42fa5a2d1a7f438baf2861aae99bf164736f6c63430008040033454950373132446f6d61696e28737472696e67206e616d652c737472696e672076657273696f6e2c6164647265737320766572696679696e67436f6e74726163742c627974657333322073616c7429",
  "linkReferences": {},
  "deployedLinkReferences": {}
}